:100000000C94E2000C940A010C940A010C940A016D
:100010000C940A010C940A010C940A010C940A0134
:100020000C940A010C940A010C940A010C940A0124
:100030000C940A010C940A010C940A010C940A0114
:100040000C9400060C940A010C94CE050C94A8059F
:100050000C940A010C940A010C940A010C940A01F4
:100060000C940A010C940A01005EBCE2613FDD833E
:10007000C29C7E20A3FD1F419DC3217FFCA2401E88
:100080005F01E3BD3E6082DC237D9FC1421CFEA078
:10009000E1BF5D0380DE3C62BEE0025CDF81633D68
:1000A0007C22C09E1D43A1FF4618FAA427799BC558
:1000B00084DA3866E5BB5907DB856739BAE4065848
:1000C0001947A5FB7826C49A653BD987045AB8E638
:1000D000A7F91B45C6987A24F8A6441A99C7257B28
:1000E0003A6486D85B05E7B98CD2306EEDB3510F18
:1000F0004E10F2AC2F7193CD114FADF3702ECC9208
:10010000D38D6F31B2EC0E50AFF1134DCE90722CF7
:100110006D33D18F0C52B0EE326C8ED0530DEFB1E7
:10012000F0AE4C1291CF2D73CA947628ABF51749D7
:100130000856B4EA6937D58B5709EBB536688AD4C7
:1001400095CB2977F4AA4816E9B7550B88D6346AB7
:100150002B7597C94A14F6A8742AC896154BA9F7A7
:10016000B6E80A54D7896B35000000002400270048
:100170002A0000000000250028002B0000000008D5
:10018000000201000003040700000000000000005E
:1001900000000000230026002900040404040404D5
:1001A0000404020202020202030303030303010226
:1001B00004081020408001020408102001020408F5
:1001C0001020000C11241FBECFEFD8E0DEBFCDBF42
:1001D00012E0A0E0B1E0EAE5F0E202C005900D9285
:1001E000AC35B107D9F723E0ACE5B2E001C01D9210
:1001F000AC30B207E1F710E0C2EED0E004C02197C6
:10020000FE010E94A10CC13ED107C9F70E94E80778
:100210000C942B100C9400000895FC01918D828D9C
:10022000981761F0828DDF01A80FB11D5D968C914A
:10023000928D9F5F9F73928F90E008958FEF9FEF55
:100240000895FC01918D828D981731F0828DE80F11
:10025000F11D858D90E008958FEF9FEF0895FC01CB
:10026000918D228D892F90E0805C9F4F821B910998
:100270008F73992708958BE692E00E942F0121E069
:10028000892B09F420E0822F0895FC01848DDF0181
:10029000A80FB11DA35ABF4F2C91848D90E00196F9
:1002A0008F739927848FA689B7892C93A089B189E8
:1002B0008C9180648C93938D848D981306C00288F2
:1002C000F389E02D80818F7D80830895EF92FF92E6
:1002D0000F931F93CF93DF93EC0181E0888F9B8D69
:1002E0008C8D981305C0E889F989808185FD24C02B
:1002F000F62E0B8D10E00F5F1F4F0F731127E02EAE
:100300008C8DE8120CC00FB607FCFACFE889F9898A
:10031000808185FFF5CFCE010E944501F1CF8B8D05
:10032000FE01E80FF11DE35AFF4FF0820B8FEA89BF
:10033000FB898081806207C0EE89FF896083E8893C
:10034000F98980818064808381E090E0DF91CF91A2
:100350001F910F91FF90EF900895CF93DF93EC01E1
:10036000888D8823C9F0EA89FB89808185FD05C0D5
:10037000A889B9898C9186FD0FC00FB607FCF5CF0F
:10038000808185FFF2CFA889B9898C9185FFEDCF57
:10039000CE010E944501E7CFDF91CF91089580E023
:1003A00090E0892B29F00E943B0181110C94000000
:1003B0000895833081F028F4813099F08230A1F0E3
:1003C00008958730A9F08830B9F08430D1F4809155
:1003D00080008F7D03C0809180008F7780938000A4
:1003E000089584B58F7702C084B58F7D84BD08954C
:1003F0008091B0008F7703C08091B0008F7D809393
:10040000B0000895CF93DF93282F30E0F901E4582E
:10041000FE4F8491F901E255FE4FD491F901E65661
:10042000FE4FC491CC2391F081110E94D901EC2F91
:10043000F0E0EE0FFF1FE057FE4FA591B491EC9155
:10044000ED2381E090E021F480E002C080E090E0C4
:10045000DF91CF9108951F93CF93DF93282F30E042
:10046000F901E458FE4F8491F901E255FE4FD49111
:10047000F901E656FE4FC491CC23C9F0162F811125
:100480000E94D901EC2FF0E0EE0FFF1FEE58FE4F57
:10049000A591B4918FB7F894111105C09C91ED2FDF
:1004A000E095E92302C0EC91ED2BEC938FBFDF9137
:1004B000CF911F910895CF93DF9390E0FC01E25517
:1004C000FE4F2491FC01E656FE4F8491882361F192
:1004D00090E0880F991FFC01E859FE4FC591D49117
:1004E000FC01EE58FE4FA591B491611109C09FB770
:1004F000F8948881209582238883EC912E230BC069
:10050000623061F49FB7F8943881822F80958323FD
:100510008883EC912E2B2C939FBF06C08FB7F89445
:10052000E8812E2B28838FBFDF91CF9108953FB7AD
:10053000F8948091610290916202A0916302B0915F
:10054000640226B5A89B05C02F3F19F00196A11D96
:10055000B11D3FBFBA2FA92F982F8827820F911D59
:10056000A11DB11DBC01CD0142E0660F771F881FA0
:10057000991F4A95D1F708958F929F92AF92BF929B
:10058000CF92DF92EF92FF926B017C010E94970263
:100590004B015C01C114D104E104F104F1F00E94AB
:1005A0009702DC01CB0188199909AA09BB09883E89
:1005B0009340A105B10570F321E0C21AD108E1080A
:1005C000F10888EE880E83E0981EA11CB11CC114AE
:1005D000D104E104F10419F7DDCFFF90EF90DF9033
:1005E000CF90BF90AF909F908F900895DC01E0E096
:1005F000615038F08D91E827F0E0E859FF4FE49121
:10060000F7CF8E2F0895FC0190810180F281E02DBB
:10061000F8948181892B81832281892F80952823D9
:100620002283A7E0B0E01197F1F721818223818333
:10063000A3E2B0E01197F1F780817894EFECF0E05D
:100640003197F1F7982381E009F480E00895FC01E7
:1006500090810180F281E02D892F809560FF12C08A
:10066000F8942281822382838181892B8183A3E272
:10067000B0E01197F1F78281982B9283789487EDFF
:1006800090E011C0F8942281822382838181892B9A
:100690008183AFEFB0E01197F1F78281982B9283BD
:1006A00078948FE090E00197F1F70895CF92DF9270
:1006B000EF92FF920F931F93CF93DF931F92CDB7CB
:1006C000DEB76C01E62E08E010E0FF24F39461E051
:1006D0008F2D8E2109F460E0C60149830E94270313
:1006E000FF0C0150110949810115110581F74111D4
:1006F00015C0F894D6011196ED91FC911297918155
:100700008C918095892381831196ED91FC911297AC
:1007100092818C9180958923828378940F90DF91C8
:10072000CF911F910F91FF90EF90DF90CF900895A0
:10073000CF92DF92EF92FF920F931F93CF93DF93AD
:100740001F92CDB7DEB78C01F62E40E065E57983C8
:100750000E945603CF2C7981D72E760188E0E80ECF
:10076000F11CF60161916F0140E0C8010E9456033F
:10077000CE14DF04B1F70F90DF91CF911F910F914D
:10078000FF90EF90DF90CF900895FC019081018061
:10079000F281E02DF8948181292F20958223818395
:1007A00078948DE743E050E0815021F1DA01119710
:1007B000F1F730813923C1F3F89482818223828357
:1007C0008181892B81837894ABE7B7E01197F1F7AA
:1007D000F894818128232183A3E1B1E01197F1F7F7
:1007E0008081982381E009F080E07894E3E6F6E0E8
:1007F0003197F1F70895AF92BF92CF92DF92EF92C7
:10080000FF920F931F93CF93DF931F92CDB7DEB765
:100810005C01E62ED72EFC01858581115DC0C501E6
:100820000E94C503811105C0F50113861586148643
:100830006BC040E060EFC5010E94560301E0F12C5F
:10084000C12C11E0C5010E940303682FC501698313
:100850000E9403036981613019F48130B9F433C017
:100860004F2D50E068131BC0F5018385181730F435
:10087000E40FF51F8381802349F402C0181731F07B
:1008800060E0193058F4F501148708C0F501EF0D48
:10089000F11D8381802B838361E009C0C12EF501A6
:1008A000E40FF51F9381802F809589238383C501F1
:1008B0000E9427031F5F000F11F4F39401E0F7E09B
:1008C000FF1508F0BFCF113438F0F501C386C11011
:1008D00015C081E0858712C0F50113861586148640
:1008E00080E0D5011396EE2DFD2D9501255F3F4F3C
:1008F0009D919193A217B307D9F706C0F5018381A3
:10090000882351F381E0EDCF0F90DF91CF911F91BC
:100910000F91FF90EF90DF90CF90BF90AF90089530
:100920004F925F926F927F928F929F92AF92BF92FF
:10093000CF92DF92EF92FF920F931F93CF93DF93AB
:1009400000D0CDB7DEB72C018A01FC0185819681EC
:1009500069837A830E94C50369817A818823C9F1FA
:10096000F201858196810E94980340E06EEBF201CE
:10097000858196810E94560378014801F9E08F0E27
:10098000911CF2016580768088E0A82EB12CCC24E1
:10099000C394D12CC3010E9403038111DC28CC0C29
:1009A000F1E0AF1AB108B1F7F701D1927F01E81574
:1009B000F90539F7F201858196810E94C5038130DE
:1009C00041F468E0C8010E94F60291E0F801208538
:1009D000821390E0892F0F900F90DF91CF911F919C
:1009E0000F91FF90EF90DF90CF90BF90AF909F90CE
:1009F0008F907F906F905F904F900895CF93DF938B
:100A0000CDB7DEB729970FB6F894DEBF0FBECDBFC6
:100A1000FB0120812031D1F0AE014F5F5F4F0E947A
:100A20009004882389F08D818F3361F020F48F3119
:100A300059F489E00CC08F3519F08F3739F004C0B4
:100A40008BE005C08AE003C080E001C08CE02996FD
:100A50000FB6F894DEBF0FBECDBFDF91CF910895E2
:100A6000EF92FF920F931F93CF93DF937C018B0143
:100A7000D42FDC011596ED91FC91169713861586FF
:100A80001486DF011B9633961E92AE17BF07E1F75F
:100A9000C0E0B801D70115968D919C9116970E94E0
:100AA000FB03811102C080E010C0CD130AC067E0D3
:100AB000C8010E94F602F8019781891302C081E003
:100AC00004C0CF5FDC1778F3E4CFDF91CF911F91A3
:100AD0000F91FF90EF900895CF92DF92EF92FF92E7
:100AE000CF93DF93EC016A017B018CE191E00E94DE
:100AF000B5078C819D810E94DE0787E291E00E940C
:100B0000B5078A819B810E94DE0787E391E00E94FE
:100B1000B507888199810E94DE0784E491E00E94F4
:100B2000B507CE0106960E94B50781E591E00E94C7
:100B3000B50742E0C701B6010E94D80681E691E000
:100B4000DF91CF91FF90EF90DF90CF900C948906CA
:100B50001F920F920FB60F9211242F933F934F9332
:100B60005F936F937F938F939F93AF93BF93EF9315
:100B7000FF938BE692E00E944501FF91EF91BF91B8
:100B8000AF919F918F917F916F915F914F913F9125
:100B90002F910F900FBE0F901F9018951F920F92DC
:100BA0000FB60F9211242F938F939F93EF93FF9380
:100BB000E0917B02F0917C028081E0918102F091D2
:100BC000820282FD12C09081809184028F5F8F73B8
:100BD00020918502821751F0E0918402F0E0E559FE
:100BE000FD4F958F8093840201C08081FF91EF912A
:100BF0009F918F912F910F900FBE0F901F9018957E
:100C00001F920F920FB60F9211242F933F938F9341
:100C10009F93AF93BF9380915D0290915E02A091EC
:100C20005F02B091600230915C0223E0230F2D3708
:100C300020F40196A11DB11D05C026E8230F0296E0
:100C4000A11DB11D20935C0280935D0290935E0212
:100C5000A0935F02B0936002809161029091620262
:100C6000A0916302B09164020196A11DB11D809311
:100C7000610290936202A0936302B0936402BF91F9
:100C8000AF919F918F913F912F910F900FBE0F9039
:100C90001F901895CF92DF92EF92FF920F931F93C0
:100CA000CF93DF936C017A018B01C0E0D0E0CE15C9
:100CB000DF0589F0D8016D918D01D601ED91FC9190
:100CC0000190F081E02DC6010995892B11F47E0178
:100CD00002C02196ECCFC701DF91CF911F910F91F8
:100CE000FF90EF90DF90CF9008950E941F10009723
:100CF00069F0FC0101900020E9F73197AF01481B32
:100D0000590BBC018BE692E00C944A0680E090E01F
:100D10000895CF93DF930E947706EC018CEF91E06A
:100D20000E9477068C0F9D1FDF91CF9108958F92BF
:100D30009F92AF92BF920F931F93CF93DF93CDB744
:100D4000DEB7A1970FB6F894DEBF0FBECDBF19A2D4
:100D5000423008F44AE08E010F5D1F4F842E912C23
:100D6000A12CB12CA50194010E94410CE62FB901E0
:100D7000CA0101501109EA3014F4E05D01C0E95CD8
:100D8000D801EC93232B242B252B61F7C8010E945B
:100D90007706A1960FB6F894DEBF0FBECDBFDF91E8
:100DA000CF911F910F91BF90AF909F908F9008951A
:100DB0004F925F926F927F928F929F92AF92BF926B
:100DC000CF92DF92EF92FF926B017C01B42E9B01D8
:100DD000AC010E94ED0E882319F08FE492E027C049
:100DE00026013701E89477F82FEF3FEF4FE75FE7F1
:100DF000C301B2010E94ED0E81110DC02FEF3FEF34
:100E00004FE75FE7C301B2010E94230D18161CF4DF
:100E100083E592E00CC02FEF3FEF4FE75FE4C7019F
:100E2000B6010E947B0E181684F487E592E0FF90CD
:100E3000EF90DF90CF90BF90AF909F908F907F907A
:100E40006F905F904F900C9477062FEF3FEF4FE736
:100E50005FECC701B6010E94230D87FDE6CF20E0BD
:100E600030E0A901C701B6010E94230D87FF11C020
:100E7000E0916B02F0916C020190F081E02D6DE247
:100E80008BE692E009954C01F7FAF094F7F8F094AC
:100E900002C0812C912CA12C60E070E080E09FE3E7
:100EA000AB1441F020E030E040E251E40E94280D14
:100EB000A394F6CF9B01AC01C701B6010E94B70C09
:100EC0002B013C010E949A0D6B017C010E94C90D0F
:100ED0009B01AC01C301B2010E94B60C2B013C0185
:100EE0004AE0C701B6010E9497067C01E80CF91C94
:100EF000BB2031F08BE991E00E947706E80EF91EE5
:100F0000DB2CDD2021F120E030E040E251E4C301A0
:100F1000B2010E94800E2B013C010E949A0D4B01F0
:100F2000A12CB12C4AE0C501B4010E949706E80E3D
:100F3000F91EC501B4010E94C90D9B01AC01C3019A
:100F4000B2010E94B60C2B013C01DA94DACFC70142
:100F5000FF90EF90DF90CF90BF90AF909F908F90D9
:100F60007F906F905F904F9008950C947706CF928A
:100F7000DF92EF92FF92CF93DF936B017C01E091C0
:100F80006B02F0916C020190F081E02D6DE28BE636
:100F900092E00995EC0166277727CB016C197D0952
:100FA0008E099F094AE00E9497068C0F9D1FDF91D2
:100FB000CF91FF90EF90DF90CF900895BC01990FF3
:100FC000880B990B97FD0C94B7074AE00C94970691
:100FD000CF93DF93CDB7DEB76C970FB6F894DEBF33
:100FE0000FBECDBF789484B5826084BD84B5816026
:100FF00084BD85B5826085BD85B5816085BD8091E4
:101000006E00816080936E0010928100809181005B
:101010008260809381008091810081608093810053
:10102000809180008160809380008091B100846015
:101030008093B1008091B00081608093B000809176
:101040007A00846080937A0080917A008260809335
:101050007A0080917A00816080937A0080917A0092
:10106000806880937A001092C100E0917B02F09139
:101070007C0282E08083E0917702F0917802108216
:10108000E0917902F0917A0283E3808310928302E7
:10109000E0917F02F091800286E08083E0917D0202
:1010A000F0917E02808180618083E0917D02F091E9
:1010B0007E02808188608083E0917D02F0917E02D3
:1010C000808180688083E0917D02F0917E02808142
:1010D0008F7D80838CE090E00E94F20E7C018EE098
:1010E00090E00E94F20E8C0160E083E00E945B02BF
:1010F000E1EBF1E0E491D801EC93EDE9F1E0E4916A
:10110000F0E0EE0FFF1FE057FE4F85919491F8013C
:10111000928381831386158614863B96C8010396B5
:101120001292E817F907E1F7D7010D931C93011507
:10113000110519F48BE691E01BC083E190E00E9459
:10114000F20EFC018CE091E0928B818B168305837B
:101150001482108289E0818381E082838383D701B6
:101160001396FC93EE931297EF2B29F487E791E007
:101170000E94890672C189E891E00E94B507F701D3
:1011800002811381D8011596ED91FC911697138673
:1011900015861486DF011B9633961E92AE17BF0785
:1011A000E1F7F8011482DD24D394BE016F5F7F4F15
:1011B000D80115968D919C9116970E94FB03882368
:1011C00009F44DC067E0CE0101960E94F6029885B1
:1011D0008913EBCFD8018C91811127C015968D9181
:1011E0009C9116970E94C503BE016F5F7F4FF80167
:1011F000858196810E94980340E064EBD8011596A2
:101200008D919C9116970E945603F80185819681D5
:101210000E940303C82ED80115968D919C911697B4
:101220000E94C503CC2009F4E8C2F801C180BE01C8
:101230006F5F7F4FC8010E94FE048C1520F4D80117
:1012400011968C9106C0BE016F5F7F4FC8010E944E
:10125000FE04F801818384818F5F8483A6CF8DE9AA
:1012600091E00E94B507D7011296ED91FC9113977A
:10127000648170E080E090E04AE00E94970684EA92
:1012800091E00E9489068EEA91E00E94B507D7019D
:101290001296ED91FC9113978081811103C087E62E
:1012A00091E002C084E691E00E9489066701B4E003
:1012B000CB0ED11C40E0B601F701828193810E94E0
:1012C0003005811104C082EC91E00E948906D701AB
:1012D00012960D911C911397B601C8010E94FE044D
:1012E000893009F4A3C0AE014F5F5F4FB601C8015A
:1012F0000E949004882309F499C0F7018481803109
:1013000009F494C08FE18D83D80115968D919C913D
:1013100016970E94C503B601F801858196810E9447
:10132000980340E06EE4D80115968D919C91169734
:101330000E94560340E06B81F801858196810E94EE
:10134000560340E06C81D80115968D919C911697BB
:101350000E945603F7018481803149F040E06D819D
:10136000D80115968D919C9116970E945603F8010D
:10137000858196810E94C503B601D80115968D918D
:101380009C9116970E949803F801408168E485813A
:1013900096810E94560364E170E080E090E00E9434
:1013A000BC02D8018C91882331F06AE070E080E0C3
:1013B00090E00E94BC02F801858196810E94C503DD
:1013C000D80111968C91893008F489E0F801818365
:1013D000893061F189E08183A12CB12CF8018481ED
:1013E00090E0A816B90614F54A2DBE016F5E7F4F36
:1013F000C8010E943005D80111969C90BE016F5E15
:101400007F4FC8010E94FE04891518F4F8018181FC
:1014100006C0BE016F5E7F4FC8010E94FE04D80166
:1014200011968C93BFEFAB1ABB0AD8CF86EE91E032
:101430000E94B507B601D70112968D919C91139722
:101440000E94FE04682F70E080E090E04AE00E9475
:1014500097068CEF91E00E947706F0926A02E09284
:1014600069021A8219821C821B821E821D826FEF02
:1014700071E0CE0107960E94241040E050E0BA01CE
:10148000CE0101960E946C05412CB4E05B2E612CCC
:10149000712C22242394312CE0906902F0906A028E
:1014A00085E092E00E94B507F70102811381D8011F
:1014B00015968D919C9116970E94C50340E06CECA7
:1014C000F801858196810E945603D8014C9164E40D
:1014D00015968D919C9116970E945603F801828172
:1014E0008823A1F0E181E950E33040F4F0E0EE0F11
:1014F000FF1FEA5EFE4F6081718102C06EEE72E0F6
:10150000072E000C880B990B0E94BC028CE192E024
:101510000E948906AE014F5F5F4FB7016C5F7F4F3E
:10152000D70112968D919C9113970E949004882365
:1015300061F16981B8E06B9FB00111248A81282F85
:1015400030E0322F2227330F330F330F262B372B68
:10155000F70184818031E1F4688570E08F81AB010F
:10156000481B5109CA019695982F8827979587950A
:101570000E942D0C60517109207FE3E0220F331F80
:10158000EA95E1F7620F731F04C060E874EE01C0D2
:10159000B901613854EE75077CF0072E000C880BFA
:1015A000990B0E94CB0D20E030E040E05CE30E940C
:1015B000800E6B017C0106C0C12CD12C4EEFE42EB5
:1015C00042ECF42E81E292E00E94B50742E0C701AE
:1015D000B6010E94D80680E480937C0080917A0056
:1015E000806480937A0080917A0086FDFCCF8091A0
:1015F00078002091790090E0922B092E000CAA0B24
:10160000BB0BA3019201281B390B4A0B5B0BA4E611
:10161000B0E00E94820CA30192010E94630C490178
:101620005A018AE292E00E94B507B7FE05C0C501E3
:10163000B4010E94B70705C04AE0C501B4010E9489
:1016400097068CEF91E00E9477061A8219821C821D
:101650001B82198A1A8A1B8A1C8A1D8A61E082E011
:101660000E945B0260E082E00E942B0262E170E077
:1016700080E090E00E94BC0261E082E00E942B02C8
:101680008BE990E00197F1F760E082E00E945B0255
:1016900001E117E282E00E940202892B31F401503D
:1016A0001109C1F78EEF9FEF75C001E117E282E0EB
:1016B0000E940202019721F401501109C1F7F2CFF3
:1016C00008E210E037E0932E812C21E1A22E27E2E0
:1016D000B22E82E00E940202892B29F481E0A81A2E
:1016E000B108B9F7DFCF0E949702698F7A8F8B8F8D
:1016F0009C8F91E1A92E97E2B92E82E00E9402020E
:10170000019729F4A1E0AA1AB108B9F7CBCF0E943A
:101710009702DC01CB01298D3A8D4B8D5C8D821BAC
:10172000930BA40BB50B8997A105B10578F0E1E106
:10173000F0E0EC0FFD1FE80DF11D2081C101092C27
:1017400001C0880F0A94EAF7822B8083911004C0AD
:10175000839487E0982E01C09A940150110909F0F2
:10176000B4CF8989282F30E0309366022093650238
:101770002B89422F50E05093680240936702280F54
:1017800081E090E03D89321302C080E090E09195C5
:10179000819591099E838D838F3F3FEF9307A9F039
:1017A000892BB1F465E372E0CE0107960E94241004
:1017B00080916702909168029C838B83809165027F
:1017C000909166029A83898309C068E372E002C03F
:1017D00067E472E0CE0107960E942410B701A601CB
:1017E000CE0101960E946C0560EA7FE080E090E007
:1017F0000E94BC020E94CF014FCED801DC9215CDD1
:10180000EBE6F2E01382128288EE93E0A0E0B0E013
:1018100084839583A683B7838AE091E09183808354
:1018200085EC90E09587848784EC90E097878687A5
:1018300080EC90E0918B808B81EC90E0938B828B9D
:1018400082EC90E0958B848B86EC90E0978B868B76
:10185000118E128E138E148E089597FB072E16F498
:10186000009407D077FD09D00E948D0C07FC05D0AD
:101870003EF4909581959F4F0895709561957F4FA7
:101880000895A1E21A2EAA1BBB1BFD010DC0AA1FC1
:10189000BB1FEE1FFF1FA217B307E407F50720F0D9
:1018A000A21BB30BE40BF50B661F771F881F991F54
:1018B0001A9469F760957095809590959B01AC019D
:1018C000BD01CF010895052E97FB1EF400940E94E0
:1018D0007A0C57FD07D00E94410C07FC03D04EF450
:1018E0000C947A0C50954095309521953F4F4F4F71
:1018F0005F4F089590958095709561957F4F8F4FBC
:101900009F4F08950E94A70CA59F900DB49F900D26
:10191000A49F800D911D11240895AA1BBB1B51E1AA
:1019200007C0AA1FBB1FA617B70710F0A61BB70B4F
:10193000881F991F5A95A9F780959095BC01CD01F4
:101940000895EE0FFF1F0590F491E02D0994A29FDA
:10195000B001B39FC001A39F700D811D1124911D83
:10196000B29F700D811D1124911D08955058BB2701
:10197000AA270E94CE0C0C94410E0E94330E38F020
:101980000E943A0E20F039F49F3F19F426F40C948B
:10199000300E0EF4E095E7FB0C942A0EE92F0E941E
:1019A000520E58F3BA17620773078407950720F0A1
:1019B00079F4A6F50C94740E0EF4E0950B2EBA2F64
:1019C000A02D0B01B90190010C01CA01A001112445
:1019D000FF27591B99F0593F50F4503E68F11A16F1
:1019E000F040A22F232F342F4427585FF3CF469582
:1019F00037952795A795F0405395C9F77EF41F16A4
:101A0000BA0B620B730B840BBAF09150A1F0FF0F6D
:101A1000BB1F661F771F881FC2F70EC0BA0F621F59
:101A2000731F841F48F4879577956795B795F79549
:101A30009E3F08F0B0CF9395880F08F09927EE0FDE
:101A40009795879508950E94060E08F481E0089501
:101A50000E943C0D0C94410E0E943A0E58F00E94D8
:101A6000330E40F029F45F3F29F00C942A0E5111F7
:101A70000C94750E0C94300E0E94520E68F399234C
:101A8000B1F3552391F3951B550BBB27AA2762177A
:101A90007307840738F09F5F5F4F220F331F441F87
:101AA000AA1FA9F335D00E2E3AF0E0E832D09150BB
:101AB0005040E695001CCAF72BD0FE2F29D0660FA8
:101AC000771F881FBB1F261737074807AB07B0E8EB
:101AD00009F0BB0B802DBF01FF2793585F4F3AF0F1
:101AE0009E3F510578F00C942A0E0C94750E5F3FC2
:101AF000E4F3983ED4F3869577956795B795F79577
:101B00009F5FC9F7880F911D9695879597F908955E
:101B1000E1E0660F771F881FBB1F621773078407FA
:101B2000BA0720F0621B730B840BBA0BEE1F88F709
:101B3000E09508950E945A0E88F09F5798F0B92FAB
:101B40009927B751B0F0E1F0660F771F881F991FF2
:101B50001AF0BA95C9F714C0B13091F00E94740E12
:101B6000B1E008950C94740E672F782F8827B85F22
:101B700039F0B93FCCF3869577956795B395D9F74A
:101B80003EF490958095709561957F4F8F4F9F4F54
:101B90000895E89409C097FB3EF490958095709560
:101BA00061957F4F8F4F9F4F9923A9F0F92F96E9A9
:101BB000BB279395F695879577956795B795F1111E
:101BC000F8CFFAF4BB0F11F460FF1BC06F5F7F4FBB
:101BD0008F4F9F4F16C0882311F096E911C07723CD
:101BE00021F09EE8872F762F05C0662371F096E8D6
:101BF000862F70E060E02AF09A95660F771F881FA5
:101C0000DAF7880F9695879597F90895990F000848
:101C1000550FAA0BE0E8FEEF16161706E807F907BE
:101C2000C0F012161306E407F50798F0621B730B59
:101C3000840B950B39F40A2661F0232B242B252BDA
:101C400021F408950A2609F4A140A6958FEF811D7D
:101C5000811D089597F99F6780E870E060E008951E
:101C60009FEF80EC089500240A94161617061806B4
:101C70000906089500240A94121613061406050690
:101C80000895092E0394000C11F4882352F0BB0F21
:101C900040F4BF2B11F460FF04C06F5F7F4F8F4F84
:101CA0009F4F089557FD9058440F551F59F05F3FBF
:101CB00071F04795880F97FB991F61F09F3F79F06E
:101CC00087950895121613061406551FF2CF4695F0
:101CD000F1DF08C0161617061806991FF1CF869572
:101CE0007105610508940895E894BB276627772756
:101CF000CB0197F908950E94060E08F48FEF08951E
:101D00000E94930E0C94410E0E94330E38F00E94F4
:101D10003A0E20F0952311F00C942A0E0C94300EFC
:101D200011240C94750E0E94520E70F3959FC1F30E
:101D3000950F50E0551F629FF001729FBB27F00D79
:101D4000B11D639FAA27F00DB11DAA1F649F6627CE
:101D5000B00DA11D661F829F2227B00DA11D621F1D
:101D6000739FB00DA11D621F839FA00D611D221FD7
:101D7000749F3327A00D611D231F849F600D211DBB
:101D8000822F762F6A2F11249F5750409AF0F1F03E
:101D900088234AF0EE0FFF1FBB1F661F771F881FA7
:101DA00091505040A9F79E3F510580F00C942A0EA7
:101DB0000C94750E5F3FE4F3983ED4F386957795C7
:101DC0006795B795F795E7959F5FC1F7FE2B880F4D
:101DD000911D9695879597F908950E94060E880B98
:101DE000990B0895CF93DF938230910510F482E030
:101DF00090E0E0910A03F0910B0320E030E0C0E0B6
:101E0000D0E0309711F14081518148175907C0F057
:101E10004817590761F482819381209719F09B83B9
:101E20008A832BC090930B0380930A0326C021154D
:101E3000310519F04217530718F49A01BE01DF016A
:101E4000EF010280F381E02DDCCF2115310509F18E
:101E5000281B390B2430310590F412968D919C91FA
:101E600013976115710521F0FB019383828304C0F0
:101E700090930B0380930A03FD01329644C0FD0149
:101E8000E20FF31F81939193225031092D933C93DC
:101E90003AC02091080330910903232B41F420918B
:101EA000020130910301309309032093080320912C
:101EB0000001309101012115310541F42DB73EB7E4
:101EC0004091040150910501241B350BE09108035A
:101ED000F0910903E217F307A0F42E1B3F0B28171C
:101EE000390778F0AC014E5F5F4F2417350748F093
:101EF0004E0F5F1F50930903409308038193919302
:101F000002C0E0E0F0E0CF01DF91CF9108950F93A0
:101F10001F93CF93DF93009709F48CC0FC01329795
:101F20001382128200910A0310910B03011511050F
:101F300081F420813181820F931F20910803309119
:101F400009032817390779F5F0930903E09308038B
:101F500071C0D80140E050E0AE17BF0750F41296B0
:101F60002D913C911397AD012115310509F1D9014E
:101F7000F3CF9D01DA013383228360817181860F63
:101F8000971F8217930769F4EC0128813981260F86
:101F9000371F2E5F3F4F318320838A819B8193833C
:101FA0008283452B29F4F0930B03E0930A0342C08C
:101FB0001396FC93EE931297ED01499159919E016E
:101FC000240F351FE217F30771F480819181840F8C
:101FD000951F029611969C938E93828193811396FE
:101FE0009C938E931297E0E0F0E0D80112968D91C9
:101FF0009C911397009719F0F8018C01F6CF8D9101
:102000009C9198012E5F3F4F820F931F20910803F0
:10201000309109032817390769F4309729F4109291
:102020000B0310920A0302C0138212821093090359
:1020300000930803DF91CF911F910F91089581E0E4
:1020400090E0F8940C942B10FB01DC0101900D92B0
:0A2050000020E1F70895F894FFCF97
:10205A0000000C0380000000000066014A062F0100
:10206A000D012101AD015E00BC0077017B20537494
:10207A00617475733A20002C2054656D7065726125
:10208A00747572653A20002C2048756D696469740C
:10209A00793A20002C204D6573736167653A2027D1
:1020AA000027204F6E655769726554656D703A2036
:1020BA0000207D004F4E004F4646004F6E6557691F
:1020CA0072654E756C6C0044616C6C617353656E1D
:1020DA00736F72734E756C6C004C6F636174696ECA
:1020EA006720646576696365732E2E2E00466F75C8
:1020FA006E64200020646576696365732E00506102
:10210A0072617369746520706F7765722069733ABA
:10211A002000556E61626C6520746F2066696E647A
:10212A00206164647265737320666F7220446576F9
:10213A006963652030004465766963652030205202
:10214A0065736F6C7574696F6E3A20000D0A0052E0
:10215A00657365740044616C6C61732074656D709D
:10216A0065726174757265732E2E2E00444F4E454A
:10217A000054656D7020433A200020536F696C68E3
:10218A00756D3A20004F4B00436865636B73756D3C
:10219A00206572726F720054696D656F7574006E96
:0C21AA00616E00696E66006F76660000D2
:00000001FF
