:100000000C94E2000C940A010C940A010C940A016D
:100010000C940A010C940A010C940A010C940A0134
:100020000C940A010C940A010C940A010C940A0124
:100030000C940A010C940A010C940A010C940A0114
:100040000C9430040C940A010C9486020C94600207
:100050000C940A010C940A010C940A010C940A01F4
:100060000C940A010C940A010000000023002600F1
:10007000290004040404040404040202020202022B
:10008000030303030303010204081020408001025C
:1000900004081020010204081020005EBCE2613F49
:1000A000DD83C29C7E20A3FD1F419DC3217FFCA256
:1000B000401E5F01E3BD3E6082DC237D9FC1421C88
:1000C000FEA0E1BF5D0380DE3C62BEE0025CDF813A
:1000D000633D7C22C09E1D43A1FF4618FAA42779E8
:1000E0009BC584DA3866E5BB5907DB856739BAE416
:1000F00006581947A5FB7826C49A653BD987045A48
:10010000B8E6A7F91B45C6987A24F8A6441A99C7F9
:10011000257B3A6486D85B05E7B98CD2306EEDB3A7
:10012000510F4E10F2AC2F7193CD114FADF3702ED5
:10013000CC92D38D6F31B2EC0E50AFF1134DCE9007
:10014000722C6D33D18F0C52B0EE326C8ED0530DB9
:10015000EFB1F0AE4C1291CF2D73CA947628ABF567
:1001600017490856B4EA6937D58B5709EBB5366895
:100170008AD495CB2977F4AA4816E9B7550B88D6C7
:10018000346A2B7597C94A14F6A8742AC896154B79
:10019000A9F7B6E80A54D7896B350000000024009F
:1001A00027002A0000000000250028002B00000086
:1001B0000008000201000003040700000000000026
:1001C0000000E50B11241FBECFEFD8E0DEBFCDBF8E
:1001D00012E0A0E0B1E0E0E4FFE102C005900D9282
:1001E000AE31B107D9F722E0AEE1B2E001C01D9215
:1001F000AE3CB207E1F710E0C2EED0E004C02197B8
:10020000FE010E94860CC13ED107C9F70E94A707D4
:100210000C949E0F0C940000CF92DF92EF92FF920D
:100220000F931F93CF93DF936C017A018B01C0E092
:10023000D0E0CE15DF0589F0D8016D918D01D60192
:10024000ED91FC910190F081E02DC6010995892B7B
:1002500011F47E0102C02196ECCFC701DF91CF914E
:100260001F910F91FF90EF90DF90CF900895FC01C8
:10027000918D828D981761F0828DDF01A80FB11DDD
:100280005D968C91928D9F5F9F73928F90E0089501
:100290008FEF9FEF0895FC01918D828D981731F0BB
:1002A000828DE80FF11D858D90E008958FEF9FEF0F
:1002B0000895FC01918D228D892F90E0805C9F4FE5
:1002C000821B91098F73992708958EE192E00E9415
:1002D000590121E0892B09F420E0822F08950E9422
:1002E000920FEF92FF920F931F93CF93DF93EC0146
:1002F00081E0888F9B8D8C8D981305C0E889F989E2
:10030000808185FD24C0F62E0B8D10E00F5F1F4FFE
:100310000F731127E02E8C8DE8120CC00FB607FC6E
:10032000FACFE889F989808185FFF5CFCE010E9457
:100330001B03F1CF8B8DFE01E80FF11DE35AFF4F38
:10034000F0820B8FEA89FB898081806207C0EE8989
:10035000FF896083E889F98980818064808381E0F6
:1003600090E0DF91CF911F910F91FF90EF90089552
:10037000CF93DF93EC01888D8823C9F0EA89FB894C
:10038000808185FD05C0A889B9898C9186FD0FC043
:100390000FB607FCF5CF808185FFF2CFA889B98918
:1003A0008C9185FFEDCFCE010E941B03E7CFDF913B
:1003B000CF910895009769F0FC0101900020E9F7C2
:1003C0003197AF01481B590BBC018EE192E00C94B0
:1003D0000C0180E090E008958F929F92AF92BF92BF
:1003E0000F931F93CF93DF93CDB7DEB7A1970FB6CF
:1003F000F894DEBF0FBECDBF19A2423008F44AE028
:100400008E010F5D1F4F842E912CA12CB12CA501C4
:1004100094010E94260CE62FB901CA01015011096E
:10042000EA3014F4E05D01C0E95CD801EC93232BC1
:10043000242B252B61F7C8010E94DA01A1960FB683
:10044000F894DEBF0FBECDBFDF91CF911F910F910A
:10045000BF90AF909F908F900895CF92DF92EF92D0
:10046000FF92CF93DF936B017C01E0911E02F0912C
:100470001F020190F081E02D6DE28EE192E009957E
:10048000EC0166277727CB016C197D098E099F093E
:100490004AE00E94EC018C0F9D1FDF91CF91FF90ED
:1004A000EF90DF90CF9008950C94DA01BC01990F82
:1004B000880B990B97FD0C942D024AE00C94EC01EB
:1004C0001F920F920FB60F9211242F933F934F93C9
:1004D0005F936F937F938F939F93AF93BF93EF93AC
:1004E000FF938EE192E00E941B03FF91EF91BF9179
:1004F000AF919F918F917F916F915F914F913F91BC
:100500002F910F900FBE0F901F9018951F920F9272
:100510000FB60F9211242F938F939F93EF93FF9316
:10052000E0912E02F0912F028081E0913402F0914F
:10053000350282FD12C09081809137028F5F8F73E8
:1005400020913802821751F0E0913702F0E0E25E2C
:10055000FD4F958F8093370201C08081FF91EF910D
:100560009F918F912F910F900FBE0F901F90189514
:1005700080E090E0892B29F00E94650181110C94A4
:1005800000000895833081F028F4813099F08230A2
:10059000A1F008958730A9F08830B9F08430D1F403
:1005A000809180008F7D03C0809180008F77809341
:1005B0008000089584B58F7702C084B58F7D84BD97
:1005C00008958091B0008F7703C08091B0008F7D37
:1005D0008093B0000895FC0190810180F281E02DAC
:1005E000892F809560FF12C0F89422818223828334
:1005F0008181892B8183A3E2B0E01197F1F7828199
:10060000982B9283789487ED90E011C0F894228122
:10061000822382838181892B8183AFEFB0E01197A0
:10062000F1F78281982B928378948FE090E0019784
:10063000F1F708950895FC01848DDF01A80FB11D25
:10064000A35ABF4F2C91848D90E001968F73992708
:10065000848FA689B7892C93A089B1898C918064F5
:100660008C93938D848D981306C00288F389E02DB6
:1006700080818F7D80830895CF93DF93282F30E092
:10068000F901E255FE4F8491F901EA57FF4FD491E9
:10069000F901EE58FF4FC491CC2391F081110E94D3
:1006A000C202EC2FF0E0EE0FFF1FE859FF4FA591BB
:1006B000B491EC91ED2381E090E021F480E002C060
:1006C00080E090E0DF91CF9108951F93CF93DF9367
:1006D000282F30E0F901E255FE4F8491F901EA57E5
:1006E000FF4FD491F901EE58FF4FC491CC23C9F0CC
:1006F000162F81110E94C202EC2FF0E0EE0FFF1FB7
:10070000EC55FE4FA591B4918FB7F894111105C027
:100710009C91ED2FE095E92302C0EC91ED2BEC9339
:100720008FBFDF91CF911F910895CF93DF9390E01A
:10073000FC01EA57FF4F2491FC01EE58FF4F8491D2
:10074000882361F190E0880F991FFC01E656FE4F67
:10075000C591D491FC01EC55FE4FA591B491611166
:1007600009C09FB7F8948881209582238883EC91F3
:100770002E230BC0623061F49FB7F8943881822F2A
:10078000809583238883EC912E2B2C939FBF06C0EA
:100790008FB7F894E8812E2B28838FBFDF91CF91FC
:1007A00008953FB7F8948091C6029091C702A09136
:1007B000C802B091C90226B5A89B05C02F3F19F009
:1007C0000196A11DB11D3FBFBA2FA92F982F8827D1
:1007D000820F911DA11DB11DBC01CD0142E0660F2C
:1007E000771F881F991F4A95D1F708958F929F927E
:1007F000AF92BF92CF92DF92EF92FF926B017C019A
:100800000E94D1034B015C01C114D104E104F10445
:10081000F1F00E94D103DC01CB0188199909AA09E2
:10082000BB09883E9340A105B10570F321E0C21ACF
:10083000D108E108F10888EE880E83E0981EA11C1B
:10084000B11CC114D104E104F10419F7DDCFFF900C
:10085000EF90DF90CF90BF90AF909F908F900895D2
:100860001F920F920FB60F9211242F933F938F93E5
:100870009F93AF93BF938091C2029091C302A091C6
:10088000C402B091C5023091C10223E0230F2D377D
:1008900020F40196A11DB11D05C026E8230F029684
:1008A000A11DB11D2093C1028093C2029093C30287
:1008B000A093C402B093C5028091C6029091C70272
:1008C000A091C802B091C9020196A11DB11D8093EB
:1008D000C6029093C702A093C802B093C902BF9109
:1008E000AF919F918F913F912F910F900FBE0F90DD
:1008F0001F901895DC01E0E0615038F08D91E827F9
:10090000F0E0E656FF4FE491F7CF8E2F0895CF9297
:10091000DF92EF92FF920F931F93CF93DF931F927B
:10092000CDB7DEB76C01E62E08E010E0FF24F394AB
:1009300061E08F2D8E2109F460E0C60149830E9499
:10094000EB02FF0C0150110949810115110581F7D6
:10095000411115C0F894D6011196ED91FC911297B2
:1009600091818C918095892381831196ED91FC91E1
:10097000129792818C9180958923828378940F902D
:10098000DF91CF911F910F91FF90EF90DF90CF906B
:100990000895CF92DF92EF92FF920F931F93CF9320
:1009A000DF931F92CDB7DEB78C01F62E40E065E5F0
:1009B00079830E948704CF2C7981D72E760188E035
:1009C000E80EF11CF60161916F0140E0C8010E9440
:1009D0008704CE14DF04B1F70F90DF91CF911F9100
:1009E0000F91FF90EF90DF90CF900895FC019081E0
:1009F0000180F281E02DF8948181892B818322810D
:100A0000892F809528232283A7E0B0E01197F1F782
:100A1000218182238183A3E2B0E01197F1F78081E5
:100A20007894EFECF0E03197F1F7982381E009F446
:100A300080E00895FC0190810180F281E02DF8941E
:100A40008181292F20958223818378948DE743E04B
:100A500050E0815021F1DA011197F1F7308139230B
:100A6000C1F3F8948281822382838181892B8183DF
:100A70007894ABE7B7E01197F1F7F89481812823D8
:100A80002183A3E1B1E01197F1F78081982381E000
:100A900009F080E07894E3E6F6E03197F1F7089505
:100AA000AF92BF92CF92DF92EF92FF920F931F937C
:100AB000CF93DF931F92CDB7DEB75C01E62ED72E22
:100AC000FC01858581115DC0C5010E941A05811157
:100AD00005C0F5011386158614866BC040E060EFF3
:100AE000C5010E94870401E0F12CC12C11E0C50171
:100AF0000E94F604682FC50169830E94F60469818B
:100B0000613019F48130B9F433C04F2D50E06813CF
:100B10001BC0F5018385181730F4E40FF51F83819E
:100B2000802349F402C0181731F060E0193058F4FE
:100B3000F501148708C0F501EF0DF11D8381802BAD
:100B4000838361E009C0C12EF501E40FF51F938195
:100B5000802F809589238383C5010E94EB021F5F4C
:100B6000000F11F4F39401E0F7E0FF1508F0BFCF98
:100B7000113438F0F501C386C11015C081E08587B6
:100B800012C0F50113861586148680E0D5011396F0
:100B9000EE2DFD2D9501255F3F4F9D919193A2175D
:100BA000B307D9F706C0F5018381882351F381E0AB
:100BB000EDCF0F90DF91CF911F910F91FF90EF90AC
:100BC000DF90CF90BF90AF9008954F925F926F9259
:100BD0007F928F929F92AF92BF92CF92DF92EF92CD
:100BE000FF920F931F93CF93DF9300D0CDB7DEB763
:100BF0002C018A01FC018581968169837A830E9498
:100C00001A0569817A818823C9F1F201858196816B
:100C10000E94C90440E06EEBF201858196810E943A
:100C2000870478014801F9E08F0E911CF20165807C
:100C3000768088E0A82EB12CCC24C394D12CC3019B
:100C40000E94F6048111DC28CC0CF1E0AF1AB10847
:100C5000B1F7F701D1927F01E815F90539F7F201F3
:100C6000858196810E941A05813041F468E0C801AF
:100C70000E947A0491E0F8012085821390E0892F88
:100C80000F900F90DF91CF911F910F91FF90EF90F8
:100C9000DF90CF90BF90AF909F908F907F906F909C
:100CA0005F904F900895CF93DF93CDB7DEB729972C
:100CB0000FB6F894DEBF0FBECDBFFB0120812031FF
:100CC000D1F0AE014F5F5F4F0E94E505882389F0A8
:100CD0008D818F3361F020F48F3159F489E00CC09D
:100CE0008F3519F08F3739F004C08BE005C08AE0EA
:100CF00003C080E001C08CE029960FB6F894DEBFF7
:100D00000FBECDBFDF91CF910895EF92FF920F9369
:100D10001F93CF93DF937C018B01D42FDC011596B9
:100D2000ED91FC911697138615861486DF011B96AC
:100D300033961E92AE17BF07E1F7C0E0B801D701A6
:100D400015968D919C9116970E945005811102C0B5
:100D500080E010C0CD130AC067E0C8010E947A0489
:100D6000F8019781891302C081E004C0CF5FDC17CE
:100D700078F3E4CFDF91CF911F910F91FF90EF9027
:100D800008958F929F92AF92BF92CF92DF92EF928F
:100D9000FF92CF93DF93EC016A017B0188EC91E035
:100DA0000E9454028C819D810E94560283ED91E045
:100DB0000E9454028A819B810E94560283EE91E038
:100DC0000E945402888199810E94560280EF91E02E
:100DD0000E945402CE0106960E9454028DEF91E0CB
:100DE0000E945402A7019601C701B6010E94600E3D
:100DF000882319F08DE092E01AC046015701E8946B
:100E0000B7F82FEF3FEF4FE75FE7C501B4010E944E
:100E1000600E81110FC02FEF3FEF4FE75FE7C50175
:100E2000B4010E94080D18162CF481E192E00E9492
:100E3000DA017BC02FEF3FEF4FE75FE4C701B60158
:100E40000E94EE0D18161CF485E192E0F0CF2FEF12
:100E50003FEF4FE75FECC701B6010E94080D87FD29
:100E6000F3CF20E030E0A901C701B6010E94080DD0
:100E700087FF0FC0E0911E02F0911F020190F081E8
:100E8000E02D6DE28EE192E00995F7FAF094F7F823
:100E9000F0942AE037ED43EA5BE3C701B6010E9414
:100EA0009C0C4B015C010E940D0D6B017C010E94AA
:100EB0003C0D9B01AC01C501B4010E949B0C4B0190
:100EC0005C014AE0C701B6010E94EC0189E192E0B1
:100ED0000E94DA0120E030E040E251E4C501B401B3
:100EE0000E94F30D4B015C010E940D0D6B01E12C82
:100EF000F12C4AE0C701B6010E94EC01C701B6011E
:100F00000E943C0D9B01AC01C501B4010E949B0CE9
:100F100020E030E040E251E40E94F30D0E940D0D0C
:100F200080E090E04AE00E94EC018BE192E00E94B8
:100F3000DA0182E891E0DF91CF91FF90EF90DF90AE
:100F4000CF90BF90AF909F908F900C94DA01CF9389
:100F5000DF93CDB7DEB76C970FB6F894DEBF0FBE48
:100F6000CDBF789484B5826084BD84B5816084BD32
:100F700085B5826085BD85B5816085BD80916E0037
:100F8000816080936E001092810080918100826068
:100F900080938100809181008160809381008091A5
:100FA00080008160809380008091B1008460809394
:100FB000B1008091B00081608093B00080917A0090
:100FC000846080937A0080917A00826080937A00B6
:100FD00080917A00816080937A0080917A008068A5
:100FE00080937A001092C100E0912E02F0912F02BE
:100FF00082E08083E0912A02F0912B021082E0913E
:101000002C02F0912D0283E3808310923602E0914E
:101010003202F091330286E08083E0913002F09159
:101020003102808180618083E0913002F091310251
:10103000808188608083E0913002F091310280816C
:1010400080688083E0913002F091310280818F7D51
:1010500080838EE090E00E94650E7C018EE090E03F
:101060000E94650E6C0160E083E00E949503E9E850
:10107000F0E0E491D601EC93E5E7F0E0E491F0E0F4
:10108000EE0FFF1FE859FF4F85919491F60192836F
:1010900081831386158614865601FBE0AF0EB11CC2
:1010A000460123E0820E911CF5011292E815F90524
:1010B000E1F7D701CD92DC92C114D10469F484E345
:1010C00090E00E94650E8C01FC018FEF9FEF8193F1
:1010D000919363E271E09FC183E190E00E94650E0D
:1010E0008C018AE193E0D80152969C938E9351979C
:1010F0001696DC92CE92159714961C9214971C9219
:1011000089E011968C93119781E012968C93129737
:1011100013968C93F701138302830115110569F46B
:1011200084E390E00E94650E8C01FC018EEF9FEF3E
:10113000819391936BE371E0A5C0F50112925F0179
:10114000E815F905D1F7DD24D394BE016F5F7F4F19
:10115000D80115968D919C9116970E945005882371
:1011600009F44DC067E0CE0101960E947A0498858B
:101170008913EBCFD8018C91811127C015968D91E1
:101180009C9116970E941A05BE016F5F7F4FF80170
:10119000858196810E94C90440E064EBD8011596D0
:1011A0008D919C9116970E948704F8018581968104
:1011B0000E94F604C82ED80115968D919C91169721
:1011C0000E941A05CC2009F4FDC2F801C180BE01BD
:1011D0006F5F7F4FC8010E9453068C1520F4D80121
:1011E00011968C9106C0BE016F5F7F4FC8010E94AF
:1011F0005306F801818384818F5F8483A6CFD70152
:101200001296ED91FC911397848181110DC084E3B6
:1012100090E00E94650E8C01FC018DEF9FEF8193A1
:1012200091936DE571E0F7C08EE691E00E94540263
:10123000D7011296ED91FC9113978081811103C023
:101240008FE191E002C08CE191E00E94DA0182E836
:1012500091E00E94DA0140E0B7016C5F7F4FF70137
:10126000828193810E948506811116C084E390E0FB
:101270000E94650E8C01FC018CEF9FEF819391938E
:1012800065E871E0CF010E94970FD7011C960C937F
:101290001C971D961C93C5C0F7010281138160E065
:1012A00070E0C8010E945306893009F4AAC0AE015B
:1012B0004F5F5F4F60E070E0C8010E94E505882342
:1012C00009F49FC080910000803109F49AC08FE139
:1012D0008D83D80115968D919C9116970E941A05C1
:1012E00060E070E0F801858196810E94C90440E0C9
:1012F0006EE4D80115968D919C9116970E948704F3
:1013000040E06B81F801858196810E94870440E06E
:101310006C81D80115968D919C9116970E94870437
:1013200080910000803139F040E06D81F8018581C5
:1013300096810E948704D80115968D919C911697ED
:101340000E941A0560E070E0F801858196810E9494
:10135000C904D8014C9168E415968D919C9116971B
:101360000E94870464E170E080E090E00E94F60350
:10137000F8018081882331F06AE070E080E090E03D
:101380000E94F603D80115968D919C9116970E94A4
:101390001A05F8018181893008F489E0D801119695
:1013A0008C931197893069F189E011968C93C12C47
:1013B000D12CD80114968C9190E0C816D9060CF562
:1013C0004C2DBE016F5E7F4FC8010E948506F8015B
:1013D000B180BE016F5E7F4FC8010E9453068B151E
:1013E00020F4D80111968C9106C0BE016F5E7F4F2C
:1013F000C8010E945306F8018183FFEFCF1ADF0A6C
:10140000D8CF84E390E00E94650E8C01FC0111921C
:1014100011926DE971E0CF010E94970FF7010487E7
:101420001587F092C002E092BF021A8219821C82D4
:101430001B821E821D8260EA71E0CE0107960E9427
:10144000970F40E050E0BA01CE0101960E94C1061C
:10145000412C14E0512E612C712C22242394312C28
:10146000E090BF02F090C002D7011C96ED91FC9174
:101470001D9780819181892B09F085C012960D916D
:101480001C911397F801858196810E941A0540E00E
:101490006CECD80115968D919C9116970E9487044B
:1014A000F801408164E4858196810E948704D80117
:1014B00012968C9112978823A9F01196EC91E9501D
:1014C000E33040F4F0E0EE0FFF1FEA5EFE4F608174
:1014D000718102C06EEE72E0072E000C880B990B32
:1014E0000E94F603AE014F5F5F4FB7016C5F7F4F05
:1014F000F701828193810E94E505882369F1698162
:10150000F8E06F9FB00111248A81282F30E0322F3C
:101510002227330F330F330F262B372BD701149687
:101520008C918031E1F4688570E08F81FB01E81BCC
:10153000F109CF019695982F8827979587950E9456
:10154000120C60517109207FF3E0220F331FFA95CE
:10155000E1F7620F731F04C060E874EE01C0B901C7
:101560006138F4EE7F07B4F0072E000C880B990B5E
:101570000E943E0D20E030E040E05CE30E94F30D6D
:101580006B017C010DC0C12CD12C56ECE52E52EC28
:10159000F52E06C0C12CD12C4EEFE42E42ECF42ED9
:1015A00080E480937C0080917A00806480937A004C
:1015B00080917A0086FDFCCF80917800209179009F
:1015C00090E0922B092E000CAA0BBB0BA3019201F9
:1015D000281B390B4A0B5B0BA4E6B0E00E94670C9A
:1015E000A30192010E94480C49015A0186EA91E048
:1015F0000E945402B7FE05C0C501B4010E942D022D
:1016000005C04AE0C501B4010E94EC0182E891E006
:101610000E94DA011A8219821C821B82198A1A8A94
:101620001B8A1C8A1D8A61E082E00E94950360E0AB
:1016300082E00E94650362E170E080E090E00E9439
:10164000F60361E082E00E9465038BE990E0019778
:10165000F1F760E082E00E94950301E117E282E089
:101660000E943C03892B31F401501109C1F78EEF20
:101670009FEF75C001E117E282E00E943C030197F1
:1016800021F401501109C1F7F2CF08E210E037E070
:10169000932E812C21E1A22E27E2B22E82E00E941D
:1016A0003C03892B29F421E0A21AB108B9F7DFCF56
:1016B0000E94D103698F7A8F8B8F9C8F91E1A92E25
:1016C00097E2B92E82E00E943C03019729F431E0B1
:1016D000A31AB108B9F7CBCF0E94D103DC01CB012B
:1016E000298D3A8D4B8D5C8D821B930BA40BB50B12
:1016F0008997A105B10578F0E1E1F0E0EC0FFD1F5D
:10170000E80DF11D2081C101092C01C0880F0A9448
:10171000EAF7822B8083911004C0839487E0982E8F
:1017200001C09A940150110909F0B4CF8989282F7A
:1017300030E03093BC022093BB022B89422F50E053
:101740005093BE024093BD02280F81E090E03D8996
:10175000321302C080E090E09195819591099E83BB
:101760008D838F3F3FEF9307A9F0892BB1F46DE98B
:1017700071E0CE0107960E94970F8091BD02909173
:10178000BE029C838B838091BB029091BC029A83A2
:10179000898309C061EB71E002C060EC71E0CE01A9
:1017A00007960E94970FB701A601CE0101960E94ED
:1017B000C10660EA7FE080E090E00E94F6030E94AC
:1017C000B8024ECED801DC9200CDEEE1F2E01382F9
:1017D000128288EE93E0A0E0B0E084839583A68334
:1017E000B7838AE091E09183808385EC90E09587D0
:1017F000848784EC90E09787868780EC90E0918BDB
:10180000808B81EC90E0938B828B82EC90E0958BC7
:10181000848B86EC90E0978B868B118E128E138EC4
:10182000148E089597FB072E16F4009407D077FDC9
:1018300009D00E94720C07FC05D03EF4909581956A
:101840009F4F0895709561957F4F0895A1E21A2EDC
:10185000AA1BBB1BFD010DC0AA1FBB1FEE1FFF1F54
:10186000A217B307E407F50720F0A21BB30BE40BA4
:10187000F50B661F771F881F991F1A9469F76095EB
:101880007095809590959B01AC01BD01CF010895A5
:10189000052E97FB1EF400940E945F0C57FD07D0A5
:1018A0000E94260C07FC03D04EF40C945F0C50955C
:1018B0004095309521953F4F4F4F5F4F089590953C
:1018C0008095709561957F4F8F4F9F4F08950E942F
:1018D0008C0CA59F900DB49F900DA49F800D911D21
:1018E00011240895AA1BBB1B51E107C0AA1FBB1FEF
:1018F000A617B70710F0A61BB70B881F991F5A959C
:10190000A9F780959095BC01CD010895EE0FFF1FBA
:101910000590F491E02D0994A29FB001B39FC001FE
:10192000A39F700D811D1124911DB29F700D811D0B
:101930001124911D08955058BB27AA270E94B30C6B
:101940000C94B40D0E94A60D38F00E94AD0D20F04D
:1019500039F49F3F19F426F40C94A30D0EF4E0958E
:10196000E7FB0C949D0DE92F0E94C50D58F3BA17A3
:10197000620773078407950720F079F4A6F50C94A5
:10198000E70D0EF4E0950B2EBA2FA02D0B01B90137
:1019900090010C01CA01A0011124FF27591B99F0E5
:1019A000593F50F4503E68F11A16F040A22F232FF1
:1019B000342F4427585FF3CF469537952795A79541
:1019C000F0405395C9F77EF41F16BA0B620B730BE8
:1019D000840BBAF09150A1F0FF0FBB1F661F771F59
:1019E000881FC2F70EC0BA0F621F731F841F48F40E
:1019F000879577956795B795F7959E3F08F0B0CF97
:101A00009395880F08F09927EE0F9795879508957D
:101A10000E94790D08F481E008950E94CD0D88F0B0
:101A20009F5798F0B92F9927B751B0F0E1F0660FA2
:101A3000771F881F991F1AF0BA95C9F714C0B130E3
:101A400091F00E94E70DB1E008950C94E70D672F27
:101A5000782F8827B85F39F0B93FCCF38695779512
:101A60006795B395D9F73EF49095809570956195FB
:101A70007F4F8F4F9F4F0895E89409C097FB3EF426
:101A800090958095709561957F4F8F4F9F4F9923CB
:101A9000A9F0F92F96E9BB279395F6958795779549
:101AA0006795B795F111F8CFFAF4BB0F11F460FF09
:101AB0001BC06F5F7F4F8F4F9F4F16C0882311F061
:101AC00096E911C0772321F09EE8872F762F05C075
:101AD000662371F096E8862F70E060E02AF09A9510
:101AE000660F771F881FDAF7880F9695879597F905
:101AF0000895990F0008550FAA0BE0E8FEEF16169F
:101B00001706E807F907C0F012161306E407F507F1
:101B100098F0621B730B840B950B39F40A2661F065
:101B2000232B242B252B21F408950A2609F4A14008
:101B3000A6958FEF811D811D089597F99F6780E815
:101B400070E060E008959FEF80EC089500240A940F
:101B50001616170618060906089500240A94121688
:101B60001306140605060895092E0394000C11F4BB
:101B7000882352F0BB0F40F4BF2B11F460FF04C068
:101B80006F5F7F4F8F4F9F4F089557FD9058440FC1
:101B9000551F59F05F3F71F04795880F97FB991FCC
:101BA00061F09F3F79F08795089512161306140689
:101BB000551FF2CF4695F1DF08C016161706180616
:101BC000991FF1CF86957105610508940895E894F1
:101BD000BB2766277727CB0197F908950E94790DD7
:101BE00008F48FEF08950E94060E0C94B40D0E9425
:101BF000A60D38F00E94AD0D20F0952311F00C9445
:101C00009D0D0C94A30D11240C94E80D0E94C50D9C
:101C100070F3959FC1F3950F50E0551F629FF0013F
:101C2000729FBB27F00DB11D639FAA27F00DB11D58
:101C3000AA1F649F6627B00DA11D661F829F2227E1
:101C4000B00DA11D621F739FB00DA11D621F839F68
:101C5000A00D611D221F749F3327A00D611D231F3E
:101C6000849F600D211D822F762F6A2F11249F578C
:101C700050409AF0F1F088234AF0EE0FFF1FBB1F8F
:101C8000661F771F881F91505040A9F79E3F51054E
:101C900080F00C949D0D0C94E80D5F3FE4F3983EAA
:101CA000D4F3869577956795B795F795E7959F5FF8
:101CB000C1F7FE2B880F911D9695879597F908958A
:101CC0000E94790D880B990B0895CF93DF93823092
:101CD000910510F482E090E0E091CC02F091CD0209
:101CE00020E030E0C0E0D0E0309711F14081518138
:101CF00048175907C0F04817590761F4828193814A
:101D0000209719F09B838A832BC09093CD028093F8
:101D1000CC0226C02115310519F04217530718F4DB
:101D20009A01BE01DF01EF010280F381E02DDCCFDB
:101D30002115310509F1281B390B2430310590F4A8
:101D400012968D919C9113976115710521F0FB01FD
:101D50009383828304C09093CD028093CC02FD01D3
:101D6000329644C0FD01E20FF31F819391932250FC
:101D700031092D933C933AC02091CA023091CB0295
:101D8000232B41F420910201309103013093CB02C7
:101D90002093CA02209100013091010121153105E3
:101DA00041F42DB73EB74091040150910501241B29
:101DB000350BE091CA02F091CB02E217F307A0F4D1
:101DC0002E1B3F0B2817390778F0AC014E5F5F4F91
:101DD0002417350748F04E0F5F1F5093CB024093F6
:101DE000CA028193919302C0E0E0F0E0CF01DF915D
:101DF000CF9108950F931F93CF93DF93009709F42A
:101E00008CC0FC013297138212820091CC02109197
:101E1000CD020115110581F420813181820F931FBC
:101E20002091CA023091CB022817390779F5F09337
:101E3000CB02E093CA0271C0D80140E050E0AE1777
:101E4000BF0750F412962D913C911397AD012115C7
:101E5000310509F1D901F3CF9D01DA0133832283E2
:101E600060817181860F971F8217930769F4EC01D7
:101E700028813981260F371F2E5F3F4F3183208302
:101E80008A819B8193838283452B29F4F093CD0231
:101E9000E093CC0242C01396FC93EE931297ED01AF
:101EA000499159919E01240F351FE217F30771F4F0
:101EB00080819181840F951F029611969C938E9339
:101EC0008281938113969C938E931297E0E0F0E0C9
:101ED000D80112968D919C911397009719F0F801F3
:101EE0008C01F6CF8D919C9198012E5F3F4F820F10
:101EF000931F2091CA023091CB022817390769F449
:101F0000309729F41092CD021092CC0202C01382B5
:101F100012821093CB020093CA02DF91CF911F91DE
:101F20000F91089581E090E0F8940C949E0FFB01CE
:101F3000DC0101900D920020E1F70895F894FFCFA5
:101F40000000CE0280000000000071010C01590168
:101F500037014B01B8015E00BC0077014F4E004FC6
:101F600046460043616E206E6F7420696E7469612D
:101F70007465204F6E65576972650043616E206E0F
:101F80006F7420696E74696174652044616C6C6162
:101F90007354656D7065726174757265004E6F2063
:101FA00073656E736F727320666F756E6400506137
:101FB00072617369746520706F7765722069733A16
:101FC00020000D0A004E6F2064657669636520610C
:101FD0007420706F736974696F6E2030004F4B000E
:101FE00052657365740020536F696C68756D3A2093
:101FF00000436865636B73756D206572726F720064
:1020000054696D656F7574007B20537461747573CA
:102010003A20002C2054656D70657261747572658C
:102020003A20002C2048756D69646974793A200063
:102030002C204D6573736167653A20270027204F78
:102040006E655769726554656D703A20006E616EF9
:0E20500000696E66006F7666002E00207D002F
:00000001FF
