:100000000C94E2000C940A010C940A010C940A016D
:100010000C940A010C940A010C940A010C940A0134
:100020000C940A010C940A010C940A010C940A0124
:100030000C940A010C940A010C940A010C940A0114
:100040000C9489030C940A010C9457020C9431020D
:100050000C940A010C940A010C940A010C940A01F4
:100060000C940A010C940A010000000023002600F1
:10007000290004040404040404040202020202022B
:10008000030303030303010204081020408001025C
:1000900004081020010204081020005EBCE2613F49
:1000A000DD83C29C7E20A3FD1F419DC3217FFCA256
:1000B000401E5F01E3BD3E6082DC237D9FC1421C88
:1000C000FEA0E1BF5D0380DE3C62BEE0025CDF813A
:1000D000633D7C22C09E1D43A1FF4618FAA42779E8
:1000E0009BC584DA3866E5BB5907DB856739BAE416
:1000F00006581947A5FB7826C49A653BD987045A48
:10010000B8E6A7F91B45C6987A24F8A6441A99C7F9
:10011000257B3A6486D85B05E7B98CD2306EEDB3A7
:10012000510F4E10F2AC2F7193CD114FADF3702ED5
:10013000CC92D38D6F31B2EC0E50AFF1134DCE9007
:10014000722C6D33D18F0C52B0EE326C8ED0530DB9
:10015000EFB1F0AE4C1291CF2D73CA947628ABF567
:1001600017490856B4EA6937D58B5709EBB5366895
:100170008AD495CB2977F4AA4816E9B7550B88D6C7
:10018000346A2B7597C94A14F6A8742AC896154B79
:10019000A9F7B6E80A54D7896B350000000024009F
:1001A00027002A0000000000250028002B00000086
:1001B0000008000201000003040700000000000026
:1001C0000000700D11241FBECFEFD8E0DEBFCDBF01
:1001D00012E0A0E0B1E0E8E1F8E202C005900D9283
:1001E000A038B107D9F723E0A0E8B2E001C01D9222
:1001F000AF36B207E1F710E0C2EED0E004C02197BD
:10020000FE010E94E40DC13ED107C9F70E946007BC
:100210000C940A140C940000FC01918D828D9817A7
:1002200061F0828DDF01A80FB11D5D968C91928DDA
:100230009F5F9F73928F90E008958FEF9FEF0895D7
:10024000FC01918D828D981731F0828DE80FF11DA0
:10025000858D90E008958FEF9FEF0895FC01918DBB
:10026000228D892F90E0805C9F4F821B91098F73B4
:10027000992708958EEC92E00E942E0121E0892BAF
:1002800009F420E0822F0895FC01848DDF01A80F7E
:10029000B11DA35ABF4F2C91848D90E001968F73AE
:1002A0009927848FA689B7892C93A089B1898C91CD
:1002B00080648C93938D848D981306C00288F38993
:1002C000E02D80818F7D80830895EF92FF920F93C0
:1002D0001F93CF93DF93EC0181E0888F9B8D8C8DF2
:1002E000981305C0E889F989808185FD24C0F62E20
:1002F0000B8D10E00F5F1F4F0F731127E02E8C8DB9
:10030000E8120CC00FB607FCFACFE889F9898081A2
:1003100085FFF5CFCE010E944401F1CF8B8DFE0108
:10032000E80FF11DE35AFF4FF0820B8FEA89FB893A
:100330008081806207C0EE89FF896083E889F9893E
:1003400080818064808381E090E0DF91CF911F9174
:100350000F91FF90EF900895CF93DF93EC01888D7C
:100360008823C9F0EA89FB89808185FD05C0A889B9
:10037000B9898C9186FD0FC00FB607FCF5CF80813F
:1003800085FFF2CFA889B9898C9185FFEDCFCE0189
:100390000E944401E7CFDF91CF91089580E090E083
:1003A000892B29F00E943A0181110C9400000895D4
:1003B000833081F028F4813099F08230A1F00895E3
:1003C0008730A9F08830B9F08430D1F48091800072
:1003D0008F7D03C0809180008F7780938000089587
:1003E00084B58F7702C084B58F7D84BD08958091D8
:1003F000B0008F7703C08091B0008F7D8093B000F4
:100400000895FC0190810180F281E02D892F809573
:1004100060FF12C0F8942281822382838181892B1C
:100420008183A3E2B0E01197F1F78281982B928348
:10043000789487ED90E011C0F89422818223828322
:100440008181892B8183AFEFB0E01197F1F7828131
:10045000982B928378948FE090E00197F1F70895BC
:1004600008951F920F920FB60F9211242F933F936E
:100470004F935F936F937F938F939F93AF93BF93AC
:10048000EF93FF938EEC92E00E944401FF91EF9175
:10049000BF91AF919F918F917F916F915F914F919C
:1004A0003F912F910F900FBE0F901F9018951F92A4
:1004B0000F920FB60F9211242F938F939F93EF9368
:1004C000FF93E091DE02F091DF028081E091E4028F
:1004D000F091E50282FD12C090818091E7028F5F6A
:1004E0008F732091E802821751F0E091E702F0E06B
:1004F000E253FD4F958F8093E70201C08081FF9109
:10050000EF919F918F912F910F900FBE0F901F90A1
:100510001895CF93DF93282F30E0F901E255FE4F75
:100520008491F901EA57FF4FD491F901EE58FF4F3A
:10053000C491CC2391F081110E94D801EC2FF0E0FE
:10054000EE0FFF1FE859FF4FA591B491EC91ED23F9
:1005500081E090E021F480E002C080E090E0DF9153
:10056000CF9108951F93CF93DF93282F30E0F901A7
:10057000E255FE4F8491F901EA57FF4FD491F901FA
:10058000EE58FF4FC491CC23C9F0162F81110E9461
:10059000D801EC2FF0E0EE0FFF1FEC55FE4FA591B8
:1005A000B4918FB7F894111105C09C91ED2FE0958F
:1005B000E92302C0EC91ED2BEC938FBFDF91CF913B
:1005C0001F910895CF93DF9390E0FC01EA57FF4F0E
:1005D0002491FC01EE58FF4F8491882361F190E053
:1005E000880F991FFC01E656FE4FC591D491FC017E
:1005F000EC55FE4FA591B491611109C09FB7F894D5
:100600008881209582238883EC912E230BC0623051
:1006100061F49FB7F8943881822F80958323888373
:10062000EC912E2B2C939FBF06C08FB7F894E881D6
:100630002E2B28838FBFDF91CF9108953FB7F89479
:100640008091930290919402A0919502B0919602AC
:1006500026B5A89B05C02F3F19F00196A11DB11D1D
:100660003FBFBA2FA92F982F8827820F911DA11D58
:10067000B11DBC01CD0142E0660F771F881F991F95
:100680004A95D1F708958F929F92AF92BF92CF92E1
:10069000DF92EF92FF926B017C010E941E034B01DF
:1006A0005C01C114D104E104F104F1F00E941E03C5
:1006B000DC01CB0188199909AA09BB09883E93403E
:1006C000A105B10570F321E0C21AD108E108F108D3
:1006D00088EE880E83E0981EA11CB11CC114D104C1
:1006E000E104F10419F7DDCFFF90EF90DF90CF9098
:1006F000BF90AF909F908F9008952FB7F89460911E
:100700008F027091900280919102909192022FBF7E
:1007100008951F920F920FB60F9211242F933F93BB
:100720008F939F93AF93BF9380918F02909190028C
:10073000A0919102B091920230918E0223E0230F9A
:100740002D3720F40196A11DB11D05C026E8230F09
:100750000296A11DB11D20938E0280938F0290936B
:100760009002A0939102B093920280919302909193
:100770009402A0919502B09196020196A11DB11D1F
:100780008093930290939402A0939502B093960263
:10079000BF91AF919F918F913F912F910F900FBE7D
:1007A0000F901F901895DC01E0E0615038F08D91BA
:1007B000E827F0E0E656FF4FE491F7CF8E2F08953B
:1007C000CF92DF92EF92FF920F931F93CF93DF931D
:1007D0001F92CDB7DEB76C01E62E08E010E0FF24D3
:1007E000F39461E08F2D8E2109F460E0C601498306
:1007F0000E940102FF0C01501109498101151105E8
:1008000081F7411115C0F894D6011196ED91FC9134
:10081000129791818C918095892381831196ED9116
:10082000FC91129792818C91809589238283789490
:100830000F90DF91CF911F910F91FF90EF90DF907C
:10084000CF900895CF92DF92EF92FF920F931F9374
:10085000CF93DF931F92CDB7DEB78C01F62E40E029
:1008600065E579830E94E003CF2C7981D72E76014C
:1008700088E0E80EF11CF60161916F0140E0C801CB
:100880000E94E003CE14DF04B1F70F90DF91CF9107
:100890001F910F91FF90EF90DF90CF900895FC0192
:1008A00090810180F281E02DF8948181892B8183F0
:1008B0002281892F809528232283A7E0B0E0119719
:1008C000F1F7218182238183A3E2B0E01197F1F750
:1008D00080817894EFECF0E03197F1F7982381E094
:1008E00009F480E00895FC0190810180F281E02DFF
:1008F000F8948181292F20958223818378948DE734
:1009000043E050E0815021F1DA011197F1F7308195
:100910003923C1F3F8948281822382838181892BD8
:1009200081837894ABE7B7E01197F1F7F894818170
:1009300028232183A3E1B1E01197F1F78081982367
:1009400081E009F080E07894E3E6F6E03197F1F792
:100950000895AF92BF92CF92DF92EF92FF920F93E2
:100960001F93CF93DF931F92CDB7DEB75C01E62EC6
:10097000D72EFC01858581115DC0C5010E947304DD
:10098000811105C0F5011386158614866BC040E001
:1009900060EFC5010E94E00301E0F12CC12C11E0E1
:1009A000C5010E944F04682FC50169830E944F044E
:1009B0006981613019F48130B9F433C04F2D50E0B2
:1009C00068131BC0F5018385181730F4E40FF51F79
:1009D0008381802349F402C0181731F060E0193098
:1009E00058F4F501148708C0F501EF0DF11D83815E
:1009F000802B838361E009C0C12EF501E40FF51F50
:100A00009381802F809589238383C5010E940102F1
:100A10001F5F000F11F4F39401E0F7E0FF1508F0F9
:100A2000BFCF113438F0F501C386C11015C081E085
:100A3000858712C0F50113861586148680E0D501DE
:100A40001396EE2DFD2D9501255F3F4F9D919193BE
:100A5000A217B307D9F706C0F5018381882351F3A4
:100A600081E0EDCF0F90DF91CF911F910F91FF901B
:100A7000EF90DF90CF90BF90AF9008954F925F922C
:100A80006F927F928F929F92AF92BF92CF92DF929E
:100A9000EF92FF920F931F93CF93DF9300D0CDB7C8
:100AA000DEB72C018A01FC018581968169837A83F6
:100AB0000E94730469817A818823C9F1F2018581DA
:100AC00096810E94220440E06EEBF20185819681BE
:100AD0000E94E00378014801F9E08F0E911CF201B9
:100AE0006580768088E0A82EB12CCC24C394D12CCC
:100AF000C3010E944F048111DC28CC0CF1E0AF1A35
:100B0000B108B1F7F701D1927F01E815F90539F77E
:100B1000F201858196810E947304813041F468E07E
:100B2000C8010E94D30391E0F8012085821390E070
:100B3000892F0F900F90DF91CF911F910F91FF9010
:100B4000EF90DF90CF90BF90AF909F908F907F906D
:100B50006F905F904F900895CF93DF93CDB7DEB73E
:100B600029970FB6F894DEBF0FBECDBFFB012081E1
:100B70002031D1F0AE014F5F5F4F0E943E058823C8
:100B800089F08D818F3361F020F48F3159F489E041
:100B90000CC08F3519F08F3739F004C08BE005C0D9
:100BA0008AE003C080E001C08CE029960FB6F8947B
:100BB000DEBF0FBECDBFDF91CF910895EF92FF92C0
:100BC0000F931F93CF93DF937C018B01D42FDC0114
:100BD0001596ED91FC911697138615861486DF0104
:100BE0001B9633961E92AE17BF07E1F7C0E0B8011F
:100BF000D70115968D919C9116970E94A904811199
:100C000002C080E010C0CD130AC067E0C8010E9496
:100C1000D303F8019781891302C081E004C0CF5F3C
:100C2000DC1778F3E4CFDF91CF911F910F91FF9004
:100C3000EF900895CF92DF92EF92FF920F931F9360
:100C4000CF93DF936C017A018B01C0E0D0E0CE1529
:100C5000DF0589F0D8016D918D01D601ED91FC91F0
:100C60000190F081E02DC6010995892B11F47E01D8
:100C700002C02196ECCFC701DF91CF911F910F9158
:100C8000FF90EF90DF90CF9008950E94BD0F0F93DB
:100C90001F930E947D030091980210919902209168
:100CA0009A0230919B02DC01CB01801B910BA20BBD
:100CB000B30BC297A105B10538F463E070E080E0A2
:100CC00090E00E944303E5CF0E947D036093980269
:100CD0007093990280939A0290939B021F910F91B7
:100CE00008956115710579F0FB0101900020E9F785
:100CF0003197AF01461B570BDC01ED91FC9102804F
:100D0000F381E02D099480E090E00895CF93DF9384
:100D1000BC018EEC92E00E947106EC016CE772E07F
:100D20008EEC92E00E9471068C0F9D1FDF91CF9197
:100D30000895CF93DF93CDB7DEB7DA950FB6F89469
:100D4000DEBF0FBECDBF9E01295F3E4F4FEB51E08E
:100D500060E071E0CE0101960E94C90FCE010196BC
:100D60000E948606D3950FB6F894DEBF0FBECDBFA6
:100D7000DF91CF9108954F925F926F927F92EF92A1
:100D8000FF920F931F93CF93DF93CDB7DEB7A19759
:100D90000FB6F894DEBF0FBECDBF7C01FA01CB01C8
:100DA00019A2223008F42AE08E010F5D1F4F422E57
:100DB000512C612C712CBF01A30192010E94971349
:100DC000F901CA01015011096A3014F4605D01C0D3
:100DD000695CD8016C93232B242B252B61F7B80178
:100DE000C7010E947106A1960FB6F894DEBF0FBE30
:100DF000CDBFDF91CF911F910F91FF90EF907F902A
:100E00006F905F904F9008950C947106CF93C82F08
:100E10008091C8029091C902DC01ED91FC9104809F
:100E2000F581E02D0995892B99F38091C802909165
:100E3000C902DC01ED91FC910480F581E02D09955A
:100E400018161906D4F58091C8029091C902DC01E8
:100E5000ED91FC910680F781E02D09959C013327E7
:100E60002336310549F02637310541F12835310562
:100E7000E1F610929C02D9CF6FE672E08091C80231
:100E80009091C9020E9404074C2F50E060E070E08E
:100E90002AE08091C8029091C9020E94BB0666E7D1
:100EA00072E08091C8029091C9020E94040762E337
:100EB00070E080E090E00E94430383E6CF910895C4
:100EC000CF93DF93CDB7DEB768970FB6F894DEBF48
:100ED0000FBECDBF789484B5826084BD84B5816037
:100EE00084BD85B5826085BD85B5816085BD8091F5
:100EF0006E00816080936E0010928100809181006D
:100F00008260809381008091810081608093810064
:100F1000809180008160809380008091B100846026
:100F20008093B1008091B00081608093B000809187
:100F30007A00846080937A0080917A008260809346
:100F40007A0080917A00816080937A0080917A00A3
:100F5000806880937A001092C1001092CA021092A9
:100F6000CB021092CC021092CD02109298021092F5
:100F7000990210929A0210929B0260ED77E080E055
:100F800090E00E9443038EEC92E09093C90280931C
:100F9000C802E091DE02F091DF0202E00083E091FE
:100FA000DA02F091DB021082E091DC02F091DD02C6
:100FB00080E180831092E602E091E202F091E30288
:100FC00016E01083E091E002F091E10280818061FF
:100FD0008083E091E002F091E1028081886080836B
:100FE000E091E002F091E102808180688083E091ED
:100FF000E002F091E10280818F7D80830E944706AC
:1010000063E271E08091C8029091C9020E940407D6
:101010006AE070E080E090E00E94430381E080930A
:101020009C02E091DE02F091DF020083E091DA029F
:10103000F091DB021082E091DC02F091DD0283E3AB
:1010400080831092E602E091E202F091E3021083C5
:10105000E091E002F091E102808180618083E09183
:10106000E002F091E102808188608083E091E002FB
:10107000F091E102808180688083E091E002F0914C
:10108000E10280818F7D80838CE090E00E94900E51
:101090007C018EE090E00E94900E8C0160E083E085
:1010A0000E94E202E9E8F0E0E491D801EC93E5E780
:1010B000F0E0E491F0E0EE0FFF1FE859FF4F85915B
:1010C0009491F801928381831386158614863B964A
:1010D000C80103961292E817F907E1F7D7010D93BB
:1010E0001C9383E190E00E94900EFC0180E392E06B
:1010F000928B818B168305831482108289E0818311
:1011000081E082838383D7011396FC93EE93129739
:1011100065E371E08EEC92E00E940407F701028122
:101120001381D8011596ED91FC91169713861586BB
:101130001486DF011B9633961E92AE17BF07E1F7A8
:10114000F8011482DD24D394BE016F5F7F4FD80174
:1011500015968D919C9116970E94A904882309F4F5
:101160004DC067E0CE0101960E94D3039885891394
:10117000EBCFD8018C91811127C015968D919C9150
:1011800016970E947304BE016F5F7F4FF80185813F
:1011900096810E94220440E064EBD80115968D915F
:1011A0009C9116970E94E003F801858196810E9428
:1011B0004F04C82ED80115968D919C9116970E94C8
:1011C0007304CC2009F447C4F801C180BE016F5FED
:1011D0007F4FC8010E94AC058C1520F4D8011196F0
:1011E0008C9106C0BE016F5F7F4FC8010E94AC05A5
:1011F000F801818384818F5F8483A6CF69E471E0E5
:101200008EEC92E00E940407D7011296ED91FC91BA
:101210001397448150E060E070E02AE08EEC92E0A9
:101220000E94BB0680E591E00E9486066AE571E0B7
:101230008EEC92E00E940407D7011296ED91FC918A
:1012400013978081811103C08FE191E002C08CE18E
:1012500091E00E9486066701B4E0CB0ED11C40E00D
:10126000B601F701828193810E94DE05811104C0DD
:101270008EE691E00E948606D70112960D911C9190
:101280001397B601C8010E94AC05893009F4A3C0C8
:10129000AE014F5F5F4FB601C8010E943E05882333
:1012A00009F499C0F7018481803109F494C08FE179
:1012B0008D83D80115968D919C9116970E94730489
:1012C000B601F801858196810E94220440E06EE417
:1012D000D80115968D919C9116970E94E00340E0ED
:1012E0006B81F801858196810E94E00340E06C816A
:1012F000D80115968D919C9116970E94E003F701F5
:101300008481803149F040E06D81D80115968D913E
:101310009C9116970E94E003F801858196810E94B6
:101320007304B601D80115968D919C9116970E9471
:101330002204F801408168E4858196810E94E003DF
:1013400064E170E080E090E00E944303D8018C915A
:10135000882331F06AE070E080E090E00E9443036F
:10136000F801858196810E947304D80111968C91B1
:10137000893008F489E0F8018183893061F189E0DE
:101380008183A12CB12CF801848190E0A816B906C4
:1013900014F54A2DBE016F5E7F4FC8010E94DE0525
:1013A000D80111969C90BE016F5E7F4FC8010E94CC
:1013B000AC05891518F4F801818106C0BE016F5E85
:1013C0007F4FC8010E94AC05D80111968C93BFEFE6
:1013D000AB1ABB0AD8CF62E971E08EEC92E00E94B2
:1013E0000407B601D70112968D919C9113970E9424
:1013F000AC05482F50E060E070E02AE08EEC92E00F
:101400000E94BB066CE772E08EEC92E00E947106CF
:10141000F0928502E09284020E94470668EA71E039
:101420008091C8029091C9020E94040760EB71E0AC
:101430008091C8029091C9020E94040765E070E0A3
:1014400080E090E00E9443036AE070E080E090E07A
:101450000E94430380919C02882319F082E00E943D
:1014600006071A8219821C821B821E821D828E012F
:10147000095F1F4F69EB71E0C8010E94C20F1F9204
:101480001F921F921F921F930F931F921F921F92E2
:101490001F921F921F928FEB91E09F938F930E9458
:1014A00099060FB6F894DEBF0FBECDBF0E947D0334
:1014B000672B682B692B39F40E947D03623071051C
:1014C00081059105B0F10E947D0360938A027093BB
:1014D0008B0280938C0290938D02C0908602D090F4
:1014E0008702E0908802F09089026C157D058E05D8
:1014F0009F0540F460938602709387028093880270
:1015000090938902C0908602D0908702E090880272
:10151000F09089029B01AC012C193D094E095F092D
:1015200069017A013AEFC316D104E104F10408F02D
:1015300095C2C0908402D090850269E172E08EEC81
:1015400092E00E940407D6011296ED90FC9013974A
:10155000F701858196810E94730440E06CECD7010D
:1015600015968D919C9116970E94E003F70140819A
:1015700064E4858196810E94E003D70112968C91E4
:1015800012978823A9F01196EC91E950E33040F4CA
:10159000F0E0EE0FFF1FEA5FFE4F6081718102C035
:1015A0006EEE72E0072E000C880B990B0E9443032D
:1015B00080E392E00E948606AE014F5F5F4FB60166
:1015C0006C5F7F4FF601828193810E943E058823E4
:1015D00061F16981F8E06F9FB00111242A8130E048
:1015E000322F2227330F330F330F262B372BD60101
:1015F00014968C918031E1F4688570E08F81FB0155
:10160000E81BF109CF019695982F88279795879524
:101610000E949D0D60517109207FA3E0220F331FAE
:10162000AA95E1F7620F731F04C060E874EE01C071
:10163000B9016138F4EE7F077CF0072E000C880BAF
:10164000990B0E947A1220E030E040E05CE30E94B7
:10165000D9126B017C0106C0C12CD12CEEEFEE2E0D
:10166000E2ECFE2E65E372E08EEC92E00E9404074D
:10167000A7019601C701B6010E948B0E882319F0BD
:101680006EE372E01AC046015701E894B7F82FEFF5
:101690003FEF4FE75FE7C501B4010E948B0E811158
:1016A00011C02FEF3FEF4FE75FE7C501B4010E9484
:1016B000731218163CF462E472E08EEC92E00E9421
:1016C000710684C02FEF3FEF4FE75FE4C701B6011B
:1016D0000E94860E18161CF466E472E0EECF2FEF1F
:1016E0003FEF4FE75FECC701B6010E94731287FD21
:1016F000F3CF20E030E0A901C701B6010E947312C8
:1017000087FF0FC0E091CE02F091CF020190F081EF
:10171000E02D6DE28EEC92E00995C701B60190587C
:1017200002C0C701B6012AE037ED43EA5BE30E943D
:10173000EB0D2B013C010E94570E4B015C010E94F6
:1017400078129B01AC01C301B2010E94EA0D2B018A
:101750003C012AE0B501A4018EEC92E00E94BB0698
:1017600067E471E08EEC92E00E94710620E030E0C8
:1017700040E251E4C301B2010E94D9122B013C01A5
:101780000E94570E4B01A12CB12C2AE0B501A401F7
:101790008EEC92E00E94BB06C501B4010E94781253
:1017A0009B01AC01C301B2010E94EA0D20E030E0D0
:1017B00040E251E40E94D9120E94570EAB0160E052
:1017C00070E02AE08EEC92E00E94BB0680E48093F9
:1017D0007C0080917A00806480937A0080917A0006
:1017E00086FDFCCF809178002091790090E0922BCB
:1017F000092E000CAA0BBB0B20E034E040E050E0C7
:10180000281B390B4A0B5B0BA4E6B0E00E94B9130E
:1018100020E034E040E050E00E94B10D49015A015F
:101820006AE472E08EEC92E00E940407B7FE14C0F6
:10183000E091CE02F091CF020190F081E02D6DE2B7
:101840008EEC92E0099544275527BA0148195909A9
:101850006A097B092AE003C02AE0B501A4018EECE5
:1018600092E00E94BB066CE772E08EEC92E00E9470
:1018700071061A8219821C821B82198A1A8A1B8A93
:101880001C8A1D8A61E082E00E94E20260E082E040
:101890000E94B20262E170E080E090E00E944303A7
:1018A00061E082E00E94B2028BE990E00197F1F7DB
:1018B00060E082E00E94E20271E1A72E77E2B72E9B
:1018C00082E00E948902892B49F421E0A21AB10822
:1018D000B9F76EEFA62EBB24BA9476C051E1A52EBF
:1018E00057E2B52E82E00E948902019729F431E087
:1018F000A31AB108B9F7EDCF38E2832E912C47E057
:10190000342E212C21E1A22E27E2B22E82E00E9469
:101910008902892B29F441E0A41AB108B9F7D9CF7B
:101920000E941E032B013C0191E1A92E97E2B92EE2
:1019300082E00E948902019729F451E0A51AB108BA
:10194000B9F7C7CF0E941E03DC01CB0184199509AA
:10195000A609B7098997A105B10580F0E1E1F0E09A
:10196000EC0FFD1FE20DF11D208181E090E0032CC2
:1019700001C0880F0A94EAF7822B8083311004C0DB
:10198000239487E0382E01C03A9481E0881A9108A8
:1019900009F0B8CF8989282F30E030938102209355
:1019A00080029B89292F30E03093830220938202AA
:1019B000890F21E030E09D89981302C020E030E0DB
:1019C000AA24BB24A21AB30ABE82AD829FEFA91635
:1019D000B906A9F0A114B104A9F465E572E0C80143
:1019E0000E94C20F80918202909183029C838B831C
:1019F00080918002909181029A83898308C068E572
:101A000072E002C067E672E0C8010E94C20FFF9256
:101A1000EF92DF92CF921F930F938A818F938981E8
:101A20008F938C818F938B818F93BF92AF928FEB2B
:101A300091E09F938F930E94990660EA7FE080E097
:101A400090E00E9443030FB6F894DEBF0FBECDBFF7
:101A50000E94CE012BCDF801D082B6CB60938602D6
:101A60007093870280938802909389020E944706B0
:101A70006FE072E08091C8029091C9020E94040751
:101A800067E172E08091C8029091C9020E94040748
:101A90000E947D03AB01BC012AE08091C8029091B5
:101AA000C9020E94BB0660EB71E08091C802909170
:101AB000C9020E94040765E070E080E090E00E94A7
:101AC00043036AE070E080E090E00E94430380916D
:101AD0009C02882309F42DCD81E00E94060729CDC0
:101AE000EEECF2E01382128288EE93E0A0E0B0E028
:101AF00084839583A683B78380E191E0918380837B
:101B000085EC90E09587848784EC90E097878687C2
:101B100080EC90E0918B808B81EC90E0938B828BBA
:101B200082EC90E0958B848B86EC90E0978B868B93
:101B3000118E128E138E148E089597FB072E16F4B5
:101B4000009407D077FD09D00E94D00D07FC05D086
:101B50003EF4909581959F4F0895709561957F4FC4
:101B60000895052E97FB1EF400940E94C80D57FDA2
:101B700007D00E94971307FC03D04EF40C94C80DB5
:101B800050954095309521953F4F4F4F5F4F0895A9
:101B900090958095709561957F4F8F4F9F4F0895D9
:101BA000AA1BBB1B51E107C0AA1FBB1FA617B70783
:101BB00010F0A61BB70B881F991F5A95A9F780959F
:101BC0009095BC01CD010895EE0FFF1F0590F49193
:101BD000E02D09945058BB27AA270E94020E0C94AE
:101BE0005D130E944F1338F00E94561320F039F411
:101BF0009F3F19F426F40C944C130EF4E095E7FB88
:101C00000C944613E92F0E946E1358F3BA1762071B
:101C100073078407950720F079F4A6F50C949013C8
:101C20000EF4E0950B2EBA2FA02D0B01B9019001F7
:101C30000C01CA01A0011124FF27591B99F0593F3B
:101C400050F4503E68F11A16F040A22F232F342F83
:101C50004427585FF3CF469537952795A795F040D1
:101C60005395C9F77EF41F16BA0B620B730B840BE6
:101C7000BAF09150A1F0FF0FBB1F661F771F881F9E
:101C8000C2F70EC0BA0F621F731F841F48F48795F6
:101C900077956795B795F7959E3F08F0B0CF9395E8
:101CA000880F08F09927EE0F9795879508950E9461
:101CB000761388F09F5798F0B92F9927B751B0F055
:101CC000E1F0660F771F881F991F1AF0BA95C9F7C0
:101CD00014C0B13091F00E949013B1E008950C94BB
:101CE0009013672F782F8827B85F39F0B93FCCF36E
:101CF000869577956795B395D9F73EF4909580953D
:101D0000709561957F4F8F4F9F4F08950E94B51238
:101D100008F48FEF08950E94B512880B990B08956F
:101D2000CF93DF938230910510F482E090E0E09150
:101D30006D03F0916E0320E030E0C0E0D0E030971A
:101D400011F14081518148175907C0F048175907D0
:101D500061F482819381209719F09B838A832BC041
:101D600090936E0380936D0326C02115310519F001
:101D70004217530718F49A01BE01DF01EF010280F8
:101D8000F381E02DDCCF2115310509F1281B390B3A
:101D90002430310590F412968D919C911397611522
:101DA000710521F0FB019383828304C090936E033D
:101DB00080936D03FD01329644C0FD01E20FF31FD5
:101DC00081939193225031092D933C933AC02091F5
:101DD0006B0330916C03232B41F42091020130916D
:101DE000030130936C0320936B0320910001309129
:101DF00001012115310541F42DB73EB74091040191
:101E000050910501241B350BE0916B03F0916C039D
:101E1000E217F307A0F42E1B3F0B2817390778F0C1
:101E2000AC014E5F5F4F2417350748F04E0F5F1F20
:101E300050936C0340936B038193919302C0E0E055
:101E4000F0E0CF01DF91CF9108950F931F93CF93CF
:101E5000DF93009709F48CC0FC0132971382128241
:101E600000916D0310916E030115110581F420811D
:101E70003181820F931F20916B0330916C032817DF
:101E8000390779F5F0936C03E0936B0371C0D801C7
:101E900040E050E0AE17BF0750F412962D913C91F0
:101EA0001397AD012115310509F1D901F3CF9D013A
:101EB000DA013383228360817181860F971F821735
:101EC000930769F4EC0128813981260F371F2E5FB3
:101ED0003F4F318320838A819B8193838283452B6B
:101EE00029F4F0936E03E0936D0342C01396FC93C4
:101EF000EE931297ED01499159919E01240F351FE0
:101F0000E217F30771F480819181840F951F029687
:101F100011969C938E938281938113969C938E93BA
:101F20001297E0E0F0E0D80112968D919C91139702
:101F3000009719F0F8018C01F6CF8D919C919801D2
:101F40002E5F3F4F820F931F20916B0330916C03E4
:101F50002817390769F4309729F410926E0310920C
:101F60006D0302C01382128210936C0300936B0303
:101F7000DF91CF911F910F91089581E090E0F89447
:101F80000C940A14FB01DC0101900D920020E1F792
:101F90000895AEE0B0E0EFECFFE00C94D2138C01BA
:101FA000CA0146E04C831A83098377FF02C060E0D0
:101FB00070E8FB013197FE83ED83A901BC01CE01DE
:101FC00001960E94F50F4D815E8157FD0AC02F8159
:101FD0003885421753070CF49A01F801E20FF31FFA
:101FE00010822E96E4E00C94EE13ACE0B0E0EBEF40
:101FF000FFE00C94C4137C016B018A01FC01178281
:102000001682838181FFBDC1CE0101964C01F7018B
:102010009381F60193FD859193FF81916F01882350
:1020200009F4ABC1853239F493FD859193FF819119
:102030006F01853229F4B70190E00E94DD11E7CFEE
:10204000512C312C20E02032A0F48B3269F030F496
:10205000803259F0833269F420612CC08D3239F01E
:10206000803339F4216026C02260246023C02860B8
:1020700021C027FD27C030ED380F3A3078F426FF15
:1020800006C0FAE05F9E300D1124532E13C08AE083
:10209000389E300D1124332E20620CC08E3221F474
:1020A00026FD6BC1206406C08C3611F4206802C086
:1020B000883641F4F60193FD859193FF81916F017C
:1020C0008111C1CF982F9F7D9554933028F40C5FD8
:1020D0001F4FFFE3F9830DC0833631F0833771F072
:1020E000833509F05BC022C0F801808189830E5FCF
:1020F0001F4F44244394512C540115C03801F2E081
:102100006F0E711CF801A080B18026FF03C0652D01
:1021100070E002C06FEF7FEFC5012C870E94D211E3
:102120002C0183012C852F77222E17C03801F2E075
:102130006F0E711CF801A080B18026FF03C0652DD1
:1021400070E002C06FEF7FEFC5012C870E94C711BE
:102150002C012C852068222E830123FC1BC0832D9B
:1021600090E048165906B0F4B70180E290E00E9472
:10217000DD113A94F4CFF50127FC859127FE81917A
:102180005F01B70190E00E94DD1131103A94F1E057
:102190004F1A51084114510471F7E5C0843611F00B
:1021A000893639F5F80127FF07C060817181828186
:1021B00093810C5F1F4F08C060817181072E000C56
:1021C000880B990B0E5F1F4F2F76722E97FF09C059
:1021D00090958095709561957F4F8F4F9F4F2068A8
:1021E000722E2AE030E0A4010E941512A82EA81831
:1021F00044C0853729F42F7EB22E2AE030E025C076
:10220000F22FF97FBF2E8F36C1F018F4883579F0A0
:10221000B4C0803719F0883721F0AFC02F2F20616C
:10222000B22EB4FE0DC08B2D8460B82E09C024FFE1
:102230000AC09F2F9660B92E06C028E030E005C086
:1022400020E130E002C020E132E0F801B7FE07C033
:1022500060817181828193810C5F1F4F06C0608114
:10226000718180E090E00E5F1F4FA4010E94151263
:10227000A82EA818FB2DFF777F2E76FE0BC0372DDA
:102280003E7FA51450F474FE0AC072FC08C0372DBE
:102290003E7E05C0BA2C372D03C0BA2C01C0B52C28
:1022A00034FF0DC0FE01EA0DF11D8081803311F471
:1022B000397E09C032FF06C0B394B39404C0832FA3
:1022C000867809F0B39433FD13C030FF06C05A2C52
:1022D000B31418F4530C5B18B32CB31468F4B7019F
:1022E00080E290E03C870E94DD11B3943C85F5CFFD
:1022F000B31410F43B1801C0312C34FF12C0B701E5
:1023000080E390E03C870E94DD113C8532FF17C0DE
:1023100031FD03C088E790E002C088E590E0B70196
:102320000CC0832F867859F031FF02C08BE201C0C8
:1023300080E237FD8DE2B70190E00E94DD11A51427
:1023400038F4B70180E390E00E94DD115A94F7CF92
:10235000AA94F401EA0DF11D8081B70190E00E947A
:10236000DD11A110F5CF332009F451CEB70180E281
:1023700090E00E94DD113A94F6CFF70186819781B3
:1023800002C08FEF9FEF2C96E2E10C94E013FC016A
:102390000590615070400110D8F7809590958E0F90
:1023A0009F1F0895FC016150704001900110D8F703
:1023B000809590958E0F9F1F08950F931F93CF9335
:1023C000DF93FB01238121FD03C08FEF9FEF28C026
:1023D00022FF16C046815781248135814217530759
:1023E00044F4A081B1819D012F5F3F4F3183208351
:1023F0008C93268137812F5F3F4F3783268310C010
:10240000EB01092F182F0084F185E02D0995892B08
:10241000E1F68E819F8101969F838E83812F902F7D
:10242000DF91CF911F910F910895FA01AA272830CB
:1024300051F1203181F1E8946F936E7F6E5F7F4F91
:102440008F4F9F4FAF4FB1E03ED0B4E03CD0670F0D
:10245000781F891F9A1FA11D680F791F8A1F911D60
:10246000A11D6A0F711D811D911DA11D20D009F4B0
:1024700068943F912AE0269F11243019305D3193F2
:10248000DEF6CF010895462F4770405D4193B3E0DB
:102490000FD0C9F7F6CF462F4F70405D4A3318F082
:1024A000495D31FD4052419302D0A9F7EACFB4E033
:1024B000A6959795879577956795BA95C9F70097EB
:1024C0006105710508959B01AC010A2E069457958C
:1024D000479537952795BA95C9F7620F731F841FE3
:1024E000951FA01D08950E94B51208F481E008957B
:1024F000E89409C097FB3EF490958095709561959E
:102500007F4F8F4F9F4F9923A9F0F92F96E9BB2753
:102510009395F695879577956795B795F111F8CFCF
:10252000FAF4BB0F11F460FF1BC06F5F7F4F8F4F3A
:102530009F4F16C0882311F096E911C0772321F030
:102540009EE8872F762F05C0662371F096E8862FC8
:1025500070E060E02AF09A95660F771F881FDAF71F
:10256000880F9695879597F90895990F0008550F4C
:10257000AA0BE0E8FEEF16161706E807F907C0F009
:1025800012161306E407F50798F0621B730B840B11
:10259000950B39F40A2661F0232B242B252B21F4EB
:1025A00008950A2609F4A140A6958FEF811D811D8B
:1025B00008950E94EC120C945D130E944F1338F0A2
:1025C0000E94561320F0952311F00C9446130C949E
:1025D0004C1311240C9491130E946E1370F3959F69
:1025E000C1F3950F50E0551F629FF001729FBB270A
:1025F000F00DB11D639FAA27F00DB11DAA1F649FA6
:102600006627B00DA11D661F829F2227B00DA11D58
:10261000621F739FB00DA11D621F839FA00D611DDE
:10262000221F749F3327A00D611D231F849F600DFF
:10263000211D822F762F6A2F11249F5750409AF028
:10264000F1F088234AF0EE0FFF1FBB1F661F771FB4
:10265000881F91505040A9F79E3F510580F00C947F
:1026600046130C9491135F3FE4F3983ED4F38695A0
:1026700077956795B795F795E7959F5FC1F7FE2B1F
:10268000880F911D9695879597F9089597F99F67FB
:1026900080E870E060E008959FEF80EC08950024EA
:1026A0000A941616170618060906089500240A94B7
:1026B00012161306140605060895092E0394000C3D
:1026C00011F4882352F0BB0F40F4BF2B11F460FFCC
:1026D00004C06F5F7F4F8F4F9F4F089557FD9058F5
:1026E000440F551F59F05F3F71F04795880F97FBD6
:1026F000991F61F09F3F79F0879508951216130690
:102700001406551FF2CF4695F1DF08C016161706BE
:102710001806991FF1CF86957105610508940895F3
:10272000E894BB2766277727CB0197F90895A1E2A4
:102730001A2EAA1BBB1BFD010DC0AA1FBB1FEE1F3B
:10274000FF1FA217B307E407F50720F0A21BB30B86
:10275000E40BF50B661F771F881F991F1A9469F702
:1027600060957095809590959B01AC01BD01CF015E
:1027700008950E94FB13A59F900DB49F900DA49FF8
:10278000800D911D112408952F923F924F925F92D8
:102790006F927F928F929F92AF92BF92CF92DF9271
:1027A000EF92FF920F931F93CF93DF93CDB7DEB7D6
:1027B000CA1BDB0B0FB6F894DEBF0FBECDBF09946A
:1027C0002A88398848885F846E847D848C849B84C1
:1027D000AA84B984C884DF80EE80FD800C811B81CF
:1027E000AA81B981CE0FD11D0FB6F894DEBF0FBEFE
:1027F000CDBFED010895A29FB001B39FC001A39F7B
:10280000700D811D1124911DB29F700D811D112429
:08281000911D0895F894FFCF1B
:1028180000006F0380005E00BC007701000000002C
:1028280065011A062E010C012001AC014F4E004F24
:10283800464600564D4450565F317C315F564D44F4
:1028480050560D0A004C6F636174696E67206465A9
:1028580076696365732E2E2E00466F756E642000B0
:1028680020646576696365732E00506172617369CF
:10287800746520706F7765722069733A2000556E11
:1028880061626C6520746F2066696E64206164649F
:102898007265737320666F7220446576696365207C
:1028A80030004465766963652030205265736F6C2B
:1028B8007574696F6E3A2000564D4450455F32007A
:1028C8005F564D4450450D0A005265736574007B90
:1028D800205374617475733A2025642C2054656DF7
:1028E80070657261747572653A2025642C2048758C
:1028F8006D69646974793A2025642C204D65737379
:102908006167653A2027257327204F6E65576972DE
:102918006554656D703A2025322E3166207D00564B
:102928004D4450455F31007C0044616C6C617320FC
:1029380074656D7065726174757265732E2E2E00E4
:10294800444F4E450054656D7020433A20006E6137
:102958006E00696E66006F76660020536F696C685A
:10296800756D3A20004F4B00436865636B73756D56
:10297800206572726F720054696D656F75740056C8
:102988004D4450435F005F564D4450430D0A0000CC
:00000001FF
